{
  "contractName": "Dwitter",
  "abi": [
    {
      "inputs": [],
      "stateMutability": "nonpayable",
      "type": "constructor"
    },
    {
      "anonymous": false,
      "inputs": [
        {
          "indexed": false,
          "internalType": "uint256",
          "name": "postID",
          "type": "uint256"
        },
        {
          "indexed": false,
          "internalType": "uint256",
          "name": "postTimeStamp",
          "type": "uint256"
        },
        {
          "indexed": false,
          "internalType": "string",
          "name": "userName",
          "type": "string"
        },
        {
          "indexed": false,
          "internalType": "string",
          "name": "content",
          "type": "string"
        },
        {
          "indexed": false,
          "internalType": "string",
          "name": "tag",
          "type": "string"
        }
      ],
      "name": "newTweet",
      "type": "event"
    },
    {
      "anonymous": false,
      "inputs": [
        {
          "indexed": false,
          "internalType": "address",
          "name": "userAddress",
          "type": "address"
        },
        {
          "indexed": false,
          "internalType": "string",
          "name": "userName",
          "type": "string"
        },
        {
          "indexed": false,
          "internalType": "uint256",
          "name": "accountCreatedON",
          "type": "uint256"
        },
        {
          "indexed": false,
          "internalType": "uint256",
          "name": "followers",
          "type": "uint256"
        },
        {
          "indexed": false,
          "internalType": "uint256",
          "name": "following",
          "type": "uint256"
        }
      ],
      "name": "newUser",
      "type": "event"
    },
    {
      "anonymous": false,
      "inputs": [
        {
          "indexed": false,
          "internalType": "address",
          "name": "userAddress",
          "type": "address"
        },
        {
          "indexed": false,
          "internalType": "string",
          "name": "userName",
          "type": "string"
        },
        {
          "indexed": false,
          "internalType": "uint256",
          "name": "accountCreatedON",
          "type": "uint256"
        },
        {
          "indexed": false,
          "internalType": "uint256",
          "name": "followers",
          "type": "uint256"
        },
        {
          "indexed": false,
          "internalType": "uint256",
          "name": "following",
          "type": "uint256"
        }
      ],
      "name": "userSignIN",
      "type": "event"
    },
    {
      "inputs": [
        {
          "internalType": "string",
          "name": "_userName",
          "type": "string"
        }
      ],
      "name": "signUP",
      "outputs": [],
      "stateMutability": "nonpayable",
      "type": "function"
    },
    {
      "inputs": [
        {
          "internalType": "string",
          "name": "_userName",
          "type": "string"
        }
      ],
      "name": "searchUser",
      "outputs": [
        {
          "internalType": "string",
          "name": "",
          "type": "string"
        },
        {
          "internalType": "uint256",
          "name": "",
          "type": "uint256"
        },
        {
          "internalType": "uint256",
          "name": "",
          "type": "uint256"
        },
        {
          "internalType": "uint256",
          "name": "",
          "type": "uint256"
        },
        {
          "internalType": "string",
          "name": "",
          "type": "string"
        }
      ],
      "stateMutability": "view",
      "type": "function",
      "constant": true
    },
    {
      "inputs": [],
      "name": "getUserByAddress",
      "outputs": [
        {
          "internalType": "string",
          "name": "",
          "type": "string"
        },
        {
          "internalType": "uint256",
          "name": "",
          "type": "uint256"
        },
        {
          "internalType": "uint256",
          "name": "",
          "type": "uint256"
        },
        {
          "internalType": "uint256",
          "name": "",
          "type": "uint256"
        }
      ],
      "stateMutability": "view",
      "type": "function",
      "constant": true
    },
    {
      "inputs": [],
      "name": "getUserNameByAddress",
      "outputs": [
        {
          "internalType": "string",
          "name": "",
          "type": "string"
        }
      ],
      "stateMutability": "view",
      "type": "function",
      "constant": true
    },
    {
      "inputs": [],
      "name": "makeSignIn",
      "outputs": [],
      "stateMutability": "nonpayable",
      "type": "function"
    },
    {
      "inputs": [],
      "name": "makeSignOut",
      "outputs": [],
      "stateMutability": "nonpayable",
      "type": "function"
    },
    {
      "inputs": [],
      "name": "accountDeactive",
      "outputs": [],
      "stateMutability": "nonpayable",
      "type": "function"
    },
    {
      "inputs": [
        {
          "internalType": "string",
          "name": "_content",
          "type": "string"
        },
        {
          "internalType": "string",
          "name": "_tag",
          "type": "string"
        }
      ],
      "name": "tweet",
      "outputs": [],
      "stateMutability": "nonpayable",
      "type": "function"
    },
    {
      "inputs": [
        {
          "internalType": "string",
          "name": "_userName",
          "type": "string"
        }
      ],
      "name": "getTweetsOfUser",
      "outputs": [
        {
          "components": [
            {
              "internalType": "uint256",
              "name": "postId",
              "type": "uint256"
            },
            {
              "internalType": "uint256",
              "name": "postTimeStamp",
              "type": "uint256"
            },
            {
              "internalType": "string",
              "name": "userName",
              "type": "string"
            },
            {
              "internalType": "string",
              "name": "content",
              "type": "string"
            },
            {
              "internalType": "string",
              "name": "tag",
              "type": "string"
            }
          ],
          "internalType": "struct Dwitter.Post[]",
          "name": "",
          "type": "tuple[]"
        }
      ],
      "stateMutability": "view",
      "type": "function",
      "constant": true
    },
    {
      "inputs": [
        {
          "internalType": "uint256",
          "name": "_postID",
          "type": "uint256"
        }
      ],
      "name": "getUserByPostId",
      "outputs": [
        {
          "internalType": "address",
          "name": "",
          "type": "address"
        }
      ],
      "stateMutability": "view",
      "type": "function",
      "constant": true
    },
    {
      "inputs": [],
      "name": "getAllPosts",
      "outputs": [
        {
          "components": [
            {
              "internalType": "uint256",
              "name": "postId",
              "type": "uint256"
            },
            {
              "internalType": "uint256",
              "name": "postTimeStamp",
              "type": "uint256"
            },
            {
              "internalType": "string",
              "name": "userName",
              "type": "string"
            },
            {
              "internalType": "string",
              "name": "content",
              "type": "string"
            },
            {
              "internalType": "string",
              "name": "tag",
              "type": "string"
            }
          ],
          "internalType": "struct Dwitter.Post[]",
          "name": "",
          "type": "tuple[]"
        }
      ],
      "stateMutability": "view",
      "type": "function",
      "constant": true
    },
    {
      "inputs": [
        {
          "internalType": "string",
          "name": "_tag",
          "type": "string"
        }
      ],
      "name": "getTagPost",
      "outputs": [
        {
          "components": [
            {
              "internalType": "uint256",
              "name": "postId",
              "type": "uint256"
            },
            {
              "internalType": "uint256",
              "name": "postTimeStamp",
              "type": "uint256"
            },
            {
              "internalType": "string",
              "name": "userName",
              "type": "string"
            },
            {
              "internalType": "string",
              "name": "content",
              "type": "string"
            },
            {
              "internalType": "string",
              "name": "tag",
              "type": "string"
            }
          ],
          "internalType": "struct Dwitter.Post[]",
          "name": "",
          "type": "tuple[]"
        }
      ],
      "stateMutability": "view",
      "type": "function",
      "constant": true
    },
    {
      "inputs": [
        {
          "internalType": "string",
          "name": "_userName",
          "type": "string"
        }
      ],
      "name": "followUser",
      "outputs": [],
      "stateMutability": "nonpayable",
      "type": "function"
    },
    {
      "inputs": [
        {
          "internalType": "string",
          "name": "_userName",
          "type": "string"
        }
      ],
      "name": "alreadyFollowed",
      "outputs": [
        {
          "internalType": "bool",
          "name": "",
          "type": "bool"
        }
      ],
      "stateMutability": "view",
      "type": "function",
      "constant": true
    },
    {
      "inputs": [],
      "name": "getFollowers",
      "outputs": [
        {
          "internalType": "address[]",
          "name": "",
          "type": "address[]"
        }
      ],
      "stateMutability": "view",
      "type": "function",
      "constant": true
    },
    {
      "inputs": [
        {
          "internalType": "address",
          "name": "_userAddress",
          "type": "address"
        }
      ],
      "name": "getFollowersName",
      "outputs": [
        {
          "internalType": "string",
          "name": "",
          "type": "string"
        }
      ],
      "stateMutability": "view",
      "type": "function",
      "constant": true
    },
    {
      "inputs": [
        {
          "internalType": "uint256",
          "name": "_postID",
          "type": "uint256"
        }
      ],
      "name": "likePost",
      "outputs": [],
      "stateMutability": "nonpayable",
      "type": "function"
    },
    {
      "inputs": [
        {
          "internalType": "uint256",
          "name": "_postID",
          "type": "uint256"
        }
      ],
      "name": "alreadyLiked",
      "outputs": [
        {
          "internalType": "bool",
          "name": "",
          "type": "bool"
        }
      ],
      "stateMutability": "view",
      "type": "function",
      "constant": true
    },
    {
      "inputs": [
        {
          "internalType": "uint256",
          "name": "_postID",
          "type": "uint256"
        }
      ],
      "name": "getLikesByPostID",
      "outputs": [
        {
          "internalType": "address[]",
          "name": "",
          "type": "address[]"
        }
      ],
      "stateMutability": "view",
      "type": "function",
      "constant": true
    },
    {
      "inputs": [
        {
          "internalType": "uint256",
          "name": "_postID",
          "type": "uint256"
        }
      ],
      "name": "reTweet",
      "outputs": [],
      "stateMutability": "nonpayable",
      "type": "function"
    },
    {
      "inputs": [
        {
          "internalType": "uint256",
          "name": "_postID",
          "type": "uint256"
        }
      ],
      "name": "alreadyRetweeted",
      "outputs": [
        {
          "internalType": "bool",
          "name": "",
          "type": "bool"
        }
      ],
      "stateMutability": "view",
      "type": "function",
      "constant": true
    },
    {
      "inputs": [
        {
          "internalType": "uint256",
          "name": "_postID",
          "type": "uint256"
        }
      ],
      "name": "getReTweetByPostID",
      "outputs": [
        {
          "internalType": "address[]",
          "name": "",
          "type": "address[]"
        }
      ],
      "stateMutability": "view",
      "type": "function",
      "constant": true
    },
    {
      "inputs": [],
      "name": "destroy",
      "outputs": [],
      "stateMutability": "nonpayable",
      "type": "function"
    }
  ],
  "bytecode": "0x608060405234801561001057600080fd5b50336000806101000a81548173ffffffffffffffffffffffffffffffffffffffff021916908373ffffffffffffffffffffffffffffffffffffffff160217905550615421806100606000396000f3fe608060405234801561001057600080fd5b506004361061014d5760003560e01c8063725009d3116100c3578063ae34a9551161007c578063ae34a9551461037b578063b3fae5fb14610397578063c9fe2650146103cb578063d90b24a0146103e9578063f12ca57014610419578063f804fe46146104495761014d565b8063725009d31461029557806373c38ea6146102b1578063799800b7146102e15780637e0a98e51461031157806383197ef014610341578063ad1ee23e1461034b5761014d565b80632626969d116101155780632626969d146101d05780632f403b4f14610200578063305611001461021c5780634015e3691461023a5780634073b1321461026a57806367758f5f1461028b5761014d565b80630d79f56114610152578063100e42421461017057806315d0f8141461017a57806323283b161461018457806325aa0839146101a0575b600080fd5b61015a610465565b6040516101679190614df2565b60405180910390f35b610178610539565b005b6101826106f9565b005b61019e60048036038101906101999190614650565b610a27565b005b6101ba60048036038101906101b591906146fd565b610e3c565b6040516101c79190614d23565b60405180910390f35b6101ea60048036038101906101e591906146fd565b610fdc565b6040516101f79190614df2565b60405180910390f35b61021a60048036038101906102159190614691565b61110e565b005b6102246116ef565b6040516102319190614e14565b60405180910390f35b610254600480360381019061024f9190614650565b611a7b565b6040516102619190614e14565b60405180910390f35b610272611de4565b6040516102829493929190614e73565b60405180910390f35b61029361218a565b005b6102af60048036038101906102aa91906146fd565b61234a565b005b6102cb60048036038101906102c691906146fd565b61252c565b6040516102d89190614e36565b60405180910390f35b6102fb60048036038101906102f691906146fd565b61266f565b6040516103089190614df2565b60405180910390f35b61032b60048036038101906103269190614650565b6127a1565b6040516103389190614e14565b60405180910390f35b610349612c79565b005b61036560048036038101906103609190614650565b612d40565b6040516103729190614e36565b60405180910390f35b61039560048036038101906103909190614650565b612ef0565b005b6103b160048036038101906103ac9190614650565b613440565b6040516103c2959493929190614ebf565b60405180910390f35b6103d3613e33565b6040516103e09190614e51565b60405180910390f35b61040360048036038101906103fe9190614627565b6140f9565b6040516104109190614e51565b60405180910390f35b610433600480360381019061042e91906146fd565b6141cd565b6040516104409190614e36565b60405180910390f35b610463600480360381019061045e91906146fd565b614310565b005b60606000600160003373ffffffffffffffffffffffffffffffffffffffff1673ffffffffffffffffffffffffffffffffffffffff16815260200190815260200160002060040180548060200260200160405190810160405280929190818152602001828054801561052b57602002820191906000526020600020905b8160009054906101000a900473ffffffffffffffffffffffffffffffffffffffff1673ffffffffffffffffffffffffffffffffffffffff16815260200190600101908083116104e1575b505050505090508091505090565b338073ffffffffffffffffffffffffffffffffffffffff16600160008373ffffffffffffffffffffffffffffffffffffffff1673ffffffffffffffffffffffffffffffffffffffff16815260200190815260200160002060000160009054906101000a900473ffffffffffffffffffffffffffffffffffffffff1673ffffffffffffffffffffffffffffffffffffffff161461060a576040517f08c379a000000000000000000000000000000000000000000000000000000000815260040161060190614f20565b60405180910390fd5b33600160008273ffffffffffffffffffffffffffffffffffffffff1673ffffffffffffffffffffffffffffffffffffffff16815260200190815260200160002060030160009054906101000a900460ff1661069a576040517f08c379a000000000000000000000000000000000000000000000000000000000815260040161069190614f80565b60405180910390fd5b6000600160003373ffffffffffffffffffffffffffffffffffffffff1673ffffffffffffffffffffffffffffffffffffffff16815260200190815260200160002060030160006101000a81548160ff0219169083151502179055505050565b338073ffffffffffffffffffffffffffffffffffffffff16600160008373ffffffffffffffffffffffffffffffffffffffff1673ffffffffffffffffffffffffffffffffffffffff16815260200190815260200160002060000160009054906101000a900473ffffffffffffffffffffffffffffffffffffffff1673ffffffffffffffffffffffffffffffffffffffff16146107ca576040517f08c379a00000000000000000000000000000000000000000000000000000000081526004016107c190614f20565b60405180910390fd5b600160003373ffffffffffffffffffffffffffffffffffffffff1673ffffffffffffffffffffffffffffffffffffffff16815260200190815260200160002060030160019054906101000a900460ff1661087d5760018060003373ffffffffffffffffffffffffffffffffffffffff1673ffffffffffffffffffffffffffffffffffffffff16815260200190815260200160002060030160016101000a81548160ff0219169083151502179055506108d8565b60018060003373ffffffffffffffffffffffffffffffffffffffff1673ffffffffffffffffffffffffffffffffffffffff16815260200190815260200160002060030160006101000a81548160ff0219169083151502179055505b7fb6a5bd9f80f38eb06917356912c97a800a1a8b8aa63fa47ea6caaef9ecbfa53933600160003373ffffffffffffffffffffffffffffffffffffffff1673ffffffffffffffffffffffffffffffffffffffff168152602001908152602001600020600101600160003373ffffffffffffffffffffffffffffffffffffffff1673ffffffffffffffffffffffffffffffffffffffff16815260200190815260200160002060020154600160003373ffffffffffffffffffffffffffffffffffffffff1673ffffffffffffffffffffffffffffffffffffffff16815260200190815260200160002060040180549050600160003373ffffffffffffffffffffffffffffffffffffffff1673ffffffffffffffffffffffffffffffffffffffff16815260200190815260200160002060050180549050604051610a1c959493929190614d98565b60405180910390a150565b60008054906101000a900473ffffffffffffffffffffffffffffffffffffffff1673ffffffffffffffffffffffffffffffffffffffff163373ffffffffffffffffffffffffffffffffffffffff161415610ab6576040517f08c379a0000000000000000000000000000000000000000000000000000000008152600401610aad90615000565b60405180910390fd5b600073ffffffffffffffffffffffffffffffffffffffff16600160003373ffffffffffffffffffffffffffffffffffffffff1673ffffffffffffffffffffffffffffffffffffffff16815260200190815260200160002060000160009054906101000a900473ffffffffffffffffffffffffffffffffffffffff1673ffffffffffffffffffffffffffffffffffffffff1614610b87576040517f08c379a0000000000000000000000000000000000000000000000000000000008152600401610b7e90615060565b60405180910390fd5b33600282604051610b989190614d0c565b908152602001604051809103902060006101000a81548173ffffffffffffffffffffffffffffffffffffffff021916908373ffffffffffffffffffffffffffffffffffffffff16021790555033600160003373ffffffffffffffffffffffffffffffffffffffff1673ffffffffffffffffffffffffffffffffffffffff16815260200190815260200160002060000160006101000a81548173ffffffffffffffffffffffffffffffffffffffff021916908373ffffffffffffffffffffffffffffffffffffffff16021790555080600160003373ffffffffffffffffffffffffffffffffffffffff1673ffffffffffffffffffffffffffffffffffffffff1681526020019081526020016000206001019080519060200190610cbb9291906144f2565b5042600160003373ffffffffffffffffffffffffffffffffffffffff1673ffffffffffffffffffffffffffffffffffffffff1681526020019081526020016000206002018190555060018060003373ffffffffffffffffffffffffffffffffffffffff1673ffffffffffffffffffffffffffffffffffffffff16815260200190815260200160002060030160006101000a81548160ff02191690831515021790555060018060003373ffffffffffffffffffffffffffffffffffffffff1673ffffffffffffffffffffffffffffffffffffffff16815260200190815260200160002060030160016101000a81548160ff0219169083151502179055507f9c24c08bfd9121dbc1e1a56bb425896672a3e9d51e141fb3dcffc84ccaf574fe3382600160003373ffffffffffffffffffffffffffffffffffffffff1673ffffffffffffffffffffffffffffffffffffffff16815260200190815260200160002060020154600080604051610e31959493929190614d3e565b60405180910390a150565b6000338073ffffffffffffffffffffffffffffffffffffffff16600160008373ffffffffffffffffffffffffffffffffffffffff1673ffffffffffffffffffffffffffffffffffffffff16815260200190815260200160002060000160009054906101000a900473ffffffffffffffffffffffffffffffffffffffff1673ffffffffffffffffffffffffffffffffffffffff1614610f0f576040517f08c379a0000000000000000000000000000000000000000000000000000000008152600401610f0690614f20565b60405180910390fd5b33600160008273ffffffffffffffffffffffffffffffffffffffff1673ffffffffffffffffffffffffffffffffffffffff16815260200190815260200160002060030160009054906101000a900460ff16610f9f576040517f08c379a0000000000000000000000000000000000000000000000000000000008152600401610f9690614f80565b60405180910390fd5b6007600085815260200190815260200160002060009054906101000a900473ffffffffffffffffffffffffffffffffffffffff1692505050919050565b606033600160008273ffffffffffffffffffffffffffffffffffffffff1673ffffffffffffffffffffffffffffffffffffffff16815260200190815260200160002060030160009054906101000a900460ff1661106e576040517f08c379a000000000000000000000000000000000000000000000000000000000815260040161106590614f80565b60405180910390fd5b6009600084815260200190815260200160002080548060200260200160405190810160405280929190818152602001828054801561110157602002820191906000526020600020905b8160009054906101000a900473ffffffffffffffffffffffffffffffffffffffff1673ffffffffffffffffffffffffffffffffffffffff16815260200190600101908083116110b7575b5050505050915050919050565b33600160008273ffffffffffffffffffffffffffffffffffffffff1673ffffffffffffffffffffffffffffffffffffffff16815260200190815260200160002060030160019054906101000a900460ff1661119e576040517f08c379a000000000000000000000000000000000000000000000000000000000815260040161119590614fc0565b60405180910390fd5b338073ffffffffffffffffffffffffffffffffffffffff16600160008373ffffffffffffffffffffffffffffffffffffffff1673ffffffffffffffffffffffffffffffffffffffff16815260200190815260200160002060000160009054906101000a900473ffffffffffffffffffffffffffffffffffffffff1673ffffffffffffffffffffffffffffffffffffffff161461126f576040517f08c379a000000000000000000000000000000000000000000000000000000000815260040161126690614f20565b60405180910390fd5b33600160008273ffffffffffffffffffffffffffffffffffffffff1673ffffffffffffffffffffffffffffffffffffffff16815260200190815260200160002060030160009054906101000a900460ff166112ff576040517f08c379a00000000000000000000000000000000000000000000000000000000081526004016112f690614f80565b60405180910390fd5b60036000815480929190611312906152d6565b91905055506000611321613e33565b905060006040518060a001604052806003548152602001428152602001838152602001888152602001878152509050600460003373ffffffffffffffffffffffffffffffffffffffff1673ffffffffffffffffffffffffffffffffffffffff168152602001908152602001600020819080600181540180825580915050600190039060005260206000209060050201600090919091909150600082015181600001556020820151816001015560408201518160020190805190602001906113e99291906144f2565b5060608201518160030190805190602001906114069291906144f2565b5060808201518160040190805190602001906114239291906144f2565b5050506008866040516114369190614d0c565b90815260200160405180910390208190806001815401808255809150506001900390600052602060002090600502016000909190919091506000820151816000015560208201518160010155604082015181600201908051906020019061149e9291906144f2565b5060608201518160030190805190602001906114bb9291906144f2565b5060808201518160040190805190602001906114d89291906144f2565b50505080600660006003548152602001908152602001600020600082015181600001556020820151816001015560408201518160020190805190602001906115219291906144f2565b50606082015181600301908051906020019061153e9291906144f2565b50608082015181600401908051906020019061155b9291906144f2565b509050503360076000600354815260200190815260200160002060006101000a81548173ffffffffffffffffffffffffffffffffffffffff021916908373ffffffffffffffffffffffffffffffffffffffff16021790555060058190806001815401808255809150506001900390600052602060002090600502016000909190919091506000820151816000015560208201518160010155604082015181600201908051906020019061160f9291906144f2565b50606082015181600301908051906020019061162c9291906144f2565b5060808201518160040190805190602001906116499291906144f2565b5050507f69ef97b5a4eb6dd889ca1f77118e028d1d612bd2a6973f126e8b940930beeef160035460066000600354815260200190815260200160002060010154600160003373ffffffffffffffffffffffffffffffffffffffff1673ffffffffffffffffffffffffffffffffffffffff1681526020019081526020016000206001018a8a6040516116de959493929190615080565b60405180910390a150505050505050565b6060338073ffffffffffffffffffffffffffffffffffffffff16600160008373ffffffffffffffffffffffffffffffffffffffff1673ffffffffffffffffffffffffffffffffffffffff16815260200190815260200160002060000160009054906101000a900473ffffffffffffffffffffffffffffffffffffffff1673ffffffffffffffffffffffffffffffffffffffff16146117c2576040517f08c379a00000000000000000000000000000000000000000000000000000000081526004016117b990614f20565b60405180910390fd5b33600160008273ffffffffffffffffffffffffffffffffffffffff1673ffffffffffffffffffffffffffffffffffffffff16815260200190815260200160002060030160009054906101000a900460ff16611852576040517f08c379a000000000000000000000000000000000000000000000000000000000815260040161184990614f80565b60405180910390fd5b6005805480602002602001604051908101604052809291908181526020016000905b82821015611a7057838290600052602060002090600502016040518060a001604052908160008201548152602001600182015481526020016002820180546118bb906152a4565b80601f01602080910402602001604051908101604052809291908181526020018280546118e7906152a4565b80156119345780601f1061190957610100808354040283529160200191611934565b820191906000526020600020905b81548152906001019060200180831161191757829003601f168201915b5050505050815260200160038201805461194d906152a4565b80601f0160208091040260200160405190810160405280929190818152602001828054611979906152a4565b80156119c65780601f1061199b576101008083540402835291602001916119c6565b820191906000526020600020905b8154815290600101906020018083116119a957829003601f168201915b505050505081526020016004820180546119df906152a4565b80601f0160208091040260200160405190810160405280929190818152602001828054611a0b906152a4565b8015611a585780601f10611a2d57610100808354040283529160200191611a58565b820191906000526020600020905b815481529060010190602001808311611a3b57829003601f168201915b50505050508152505081526020019060010190611874565b505050509250505090565b606033600160008273ffffffffffffffffffffffffffffffffffffffff1673ffffffffffffffffffffffffffffffffffffffff16815260200190815260200160002060030160019054906101000a900460ff16611b0d576040517f08c379a0000000000000000000000000000000000000000000000000000000008152600401611b0490614fc0565b60405180910390fd5b33600160008273ffffffffffffffffffffffffffffffffffffffff1673ffffffffffffffffffffffffffffffffffffffff16815260200190815260200160002060030160009054906101000a900460ff16611b9d576040517f08c379a0000000000000000000000000000000000000000000000000000000008152600401611b9490614f80565b60405180910390fd5b600884604051611bad9190614d0c565b9081526020016040518091039020805480602002602001604051908101604052809291908181526020016000905b82821015611dd757838290600052602060002090600502016040518060a00160405290816000820154815260200160018201548152602001600282018054611c22906152a4565b80601f0160208091040260200160405190810160405280929190818152602001828054611c4e906152a4565b8015611c9b5780601f10611c7057610100808354040283529160200191611c9b565b820191906000526020600020905b815481529060010190602001808311611c7e57829003601f168201915b50505050508152602001600382018054611cb4906152a4565b80601f0160208091040260200160405190810160405280929190818152602001828054611ce0906152a4565b8015611d2d5780601f10611d0257610100808354040283529160200191611d2d565b820191906000526020600020905b815481529060010190602001808311611d1057829003601f168201915b50505050508152602001600482018054611d46906152a4565b80601f0160208091040260200160405190810160405280929190818152602001828054611d72906152a4565b8015611dbf5780601f10611d9457610100808354040283529160200191611dbf565b820191906000526020600020905b815481529060010190602001808311611da257829003601f168201915b50505050508152505081526020019060010190611bdb565b5050505092505050919050565b60606000806000338073ffffffffffffffffffffffffffffffffffffffff16600160008373ffffffffffffffffffffffffffffffffffffffff1673ffffffffffffffffffffffffffffffffffffffff16815260200190815260200160002060000160009054906101000a900473ffffffffffffffffffffffffffffffffffffffff1673ffffffffffffffffffffffffffffffffffffffff1614611ebc576040517f08c379a0000000000000000000000000000000000000000000000000000000008152600401611eb390614f20565b60405180910390fd5b33600160008273ffffffffffffffffffffffffffffffffffffffff1673ffffffffffffffffffffffffffffffffffffffff16815260200190815260200160002060030160019054906101000a900460ff16611f4c576040517f08c379a0000000000000000000000000000000000000000000000000000000008152600401611f4390614fc0565b60405180910390fd5b33600160008273ffffffffffffffffffffffffffffffffffffffff1673ffffffffffffffffffffffffffffffffffffffff16815260200190815260200160002060030160009054906101000a900460ff16611fdc576040517f08c379a0000000000000000000000000000000000000000000000000000000008152600401611fd390614f80565b60405180910390fd5b600160003373ffffffffffffffffffffffffffffffffffffffff1673ffffffffffffffffffffffffffffffffffffffff168152602001908152602001600020600101600160003373ffffffffffffffffffffffffffffffffffffffff1673ffffffffffffffffffffffffffffffffffffffff16815260200190815260200160002060040180549050600160003373ffffffffffffffffffffffffffffffffffffffff1673ffffffffffffffffffffffffffffffffffffffff16815260200190815260200160002060050180549050600160003373ffffffffffffffffffffffffffffffffffffffff1673ffffffffffffffffffffffffffffffffffffffff168152602001908152602001600020600201548380546120f9906152a4565b80601f0160208091040260200160405190810160405280929190818152602001828054612125906152a4565b80156121725780601f1061214757610100808354040283529160200191612172565b820191906000526020600020905b81548152906001019060200180831161215557829003601f168201915b50505050509350965096509650965050505090919293565b338073ffffffffffffffffffffffffffffffffffffffff16600160008373ffffffffffffffffffffffffffffffffffffffff1673ffffffffffffffffffffffffffffffffffffffff16815260200190815260200160002060000160009054906101000a900473ffffffffffffffffffffffffffffffffffffffff1673ffffffffffffffffffffffffffffffffffffffff161461225b576040517f08c379a000000000000000000000000000000000000000000000000000000000815260040161225290614f20565b60405180910390fd5b33600160008273ffffffffffffffffffffffffffffffffffffffff1673ffffffffffffffffffffffffffffffffffffffff16815260200190815260200160002060030160009054906101000a900460ff166122eb576040517f08c379a00000000000000000000000000000000000000000000000000000000081526004016122e290614f80565b60405180910390fd5b6000600160003373ffffffffffffffffffffffffffffffffffffffff1673ffffffffffffffffffffffffffffffffffffffff16815260200190815260200160002060030160016101000a81548160ff0219169083151502179055505050565b33600160008273ffffffffffffffffffffffffffffffffffffffff1673ffffffffffffffffffffffffffffffffffffffff16815260200190815260200160002060030160019054906101000a900460ff166123da576040517f08c379a00000000000000000000000000000000000000000000000000000000081526004016123d190614fc0565b60405180910390fd5b33600160008273ffffffffffffffffffffffffffffffffffffffff1673ffffffffffffffffffffffffffffffffffffffff16815260200190815260200160002060030160009054906101000a900460ff1661246a576040517f08c379a000000000000000000000000000000000000000000000000000000000815260040161246190614f80565b60405180910390fd5b612473836141cd565b156124b3576040517f08c379a00000000000000000000000000000000000000000000000000000000081526004016124aa90615040565b60405180910390fd5b60096000848152602001908152602001600020339080600181540180825580915050600190039060005260206000200160009091909190916101000a81548173ffffffffffffffffffffffffffffffffffffffff021916908373ffffffffffffffffffffffffffffffffffffffff160217905550505050565b600080600a60008481526020019081526020016000208054806020026020016040519081016040528092919081815260200182805480156125c257602002820191906000526020600020905b8160009054906101000a900473ffffffffffffffffffffffffffffffffffffffff1673ffffffffffffffffffffffffffffffffffffffff1681526020019060010190808311612578575b5050505050905060005b81518110156126675781818151811061260e577f4e487b7100000000000000000000000000000000000000000000000000000000600052603260045260246000fd5b602002602001015173ffffffffffffffffffffffffffffffffffffffff163373ffffffffffffffffffffffffffffffffffffffff1614156126545760019250505061266a565b808061265f906152d6565b9150506125cc565b50505b919050565b606033600160008273ffffffffffffffffffffffffffffffffffffffff1673ffffffffffffffffffffffffffffffffffffffff16815260200190815260200160002060030160009054906101000a900460ff16612701576040517f08c379a00000000000000000000000000000000000000000000000000000000081526004016126f890614f80565b60405180910390fd5b600a600084815260200190815260200160002080548060200260200160405190810160405280929190818152602001828054801561279457602002820191906000526020600020905b8160009054906101000a900473ffffffffffffffffffffffffffffffffffffffff1673ffffffffffffffffffffffffffffffffffffffff168152602001906001019080831161274a575b5050505050915050919050565b6060338073ffffffffffffffffffffffffffffffffffffffff16600160008373ffffffffffffffffffffffffffffffffffffffff1673ffffffffffffffffffffffffffffffffffffffff16815260200190815260200160002060000160009054906101000a900473ffffffffffffffffffffffffffffffffffffffff1673ffffffffffffffffffffffffffffffffffffffff1614612874576040517f08c379a000000000000000000000000000000000000000000000000000000000815260040161286b90614f20565b60405180910390fd5b33600160008273ffffffffffffffffffffffffffffffffffffffff1673ffffffffffffffffffffffffffffffffffffffff16815260200190815260200160002060030160009054906101000a900460ff16612904576040517f08c379a00000000000000000000000000000000000000000000000000000000081526004016128fb90614f80565b60405180910390fd5b6002846040516129149190614d0c565b908152602001604051809103902060009054906101000a900473ffffffffffffffffffffffffffffffffffffffff16600160008273ffffffffffffffffffffffffffffffffffffffff1673ffffffffffffffffffffffffffffffffffffffff16815260200190815260200160002060030160019054906101000a900460ff166129d2576040517f08c379a00000000000000000000000000000000000000000000000000000000081526004016129c990614fc0565b60405180910390fd5b600460006002876040516129e69190614d0c565b908152602001604051809103902060009054906101000a900473ffffffffffffffffffffffffffffffffffffffff1673ffffffffffffffffffffffffffffffffffffffff1673ffffffffffffffffffffffffffffffffffffffff168152602001908152602001600020805480602002602001604051908101604052809291908181526020016000905b82821015612c6b57838290600052602060002090600502016040518060a00160405290816000820154815260200160018201548152602001600282018054612ab6906152a4565b80601f0160208091040260200160405190810160405280929190818152602001828054612ae2906152a4565b8015612b2f5780601f10612b0457610100808354040283529160200191612b2f565b820191906000526020600020905b815481529060010190602001808311612b1257829003601f168201915b50505050508152602001600382018054612b48906152a4565b80601f0160208091040260200160405190810160405280929190818152602001828054612b74906152a4565b8015612bc15780601f10612b9657610100808354040283529160200191612bc1565b820191906000526020600020905b815481529060010190602001808311612ba457829003601f168201915b50505050508152602001600482018054612bda906152a4565b80601f0160208091040260200160405190810160405280929190818152602001828054612c06906152a4565b8015612c535780601f10612c2857610100808354040283529160200191612c53565b820191906000526020600020905b815481529060010190602001808311612c3657829003601f168201915b50505050508152505081526020019060010190612a6f565b505050509350505050919050565b60008054906101000a900473ffffffffffffffffffffffffffffffffffffffff1673ffffffffffffffffffffffffffffffffffffffff163373ffffffffffffffffffffffffffffffffffffffff1614612d07576040517f08c379a0000000000000000000000000000000000000000000000000000000008152600401612cfe90614f60565b60405180910390fd5b60008054906101000a900473ffffffffffffffffffffffffffffffffffffffff1673ffffffffffffffffffffffffffffffffffffffff16ff5b60008060016000600285604051612d579190614d0c565b908152602001604051809103902060009054906101000a900473ffffffffffffffffffffffffffffffffffffffff1673ffffffffffffffffffffffffffffffffffffffff1673ffffffffffffffffffffffffffffffffffffffff168152602001908152602001600020600401805480602002602001604051908101604052809291908181526020018280548015612e4357602002820191906000526020600020905b8160009054906101000a900473ffffffffffffffffffffffffffffffffffffffff1673ffffffffffffffffffffffffffffffffffffffff1681526020019060010190808311612df9575b5050505050905060005b8151811015612ee857818181518110612e8f577f4e487b7100000000000000000000000000000000000000000000000000000000600052603260045260246000fd5b602002602001015173ffffffffffffffffffffffffffffffffffffffff163373ffffffffffffffffffffffffffffffffffffffff161415612ed557600192505050612eeb565b8080612ee0906152d6565b915050612e4d565b50505b919050565b338073ffffffffffffffffffffffffffffffffffffffff16600160008373ffffffffffffffffffffffffffffffffffffffff1673ffffffffffffffffffffffffffffffffffffffff16815260200190815260200160002060000160009054906101000a900473ffffffffffffffffffffffffffffffffffffffff1673ffffffffffffffffffffffffffffffffffffffff1614612fc1576040517f08c379a0000000000000000000000000000000000000000000000000000000008152600401612fb890614f20565b60405180910390fd5b33600160008273ffffffffffffffffffffffffffffffffffffffff1673ffffffffffffffffffffffffffffffffffffffff16815260200190815260200160002060030160009054906101000a900460ff16613051576040517f08c379a000000000000000000000000000000000000000000000000000000000815260040161304890614f80565b60405180910390fd5b6002836040516130619190614d0c565b908152602001604051809103902060009054906101000a900473ffffffffffffffffffffffffffffffffffffffff168073ffffffffffffffffffffffffffffffffffffffff16600160008373ffffffffffffffffffffffffffffffffffffffff1673ffffffffffffffffffffffffffffffffffffffff16815260200190815260200160002060000160009054906101000a900473ffffffffffffffffffffffffffffffffffffffff1673ffffffffffffffffffffffffffffffffffffffff1614613160576040517f08c379a000000000000000000000000000000000000000000000000000000000815260040161315790614f20565b60405180910390fd5b6002846040516131709190614d0c565b908152602001604051809103902060009054906101000a900473ffffffffffffffffffffffffffffffffffffffff16600160008273ffffffffffffffffffffffffffffffffffffffff1673ffffffffffffffffffffffffffffffffffffffff16815260200190815260200160002060030160019054906101000a900460ff1661322e576040517f08c379a000000000000000000000000000000000000000000000000000000000815260040161322590614fc0565b60405180910390fd5b61323785612d40565b15613277576040517f08c379a000000000000000000000000000000000000000000000000000000000815260040161326e90614fa0565b60405180910390fd5b6001600060028760405161328b9190614d0c565b908152602001604051809103902060009054906101000a900473ffffffffffffffffffffffffffffffffffffffff1673ffffffffffffffffffffffffffffffffffffffff1673ffffffffffffffffffffffffffffffffffffffff168152602001908152602001600020600401339080600181540180825580915050600190039060005260206000200160009091909190916101000a81548173ffffffffffffffffffffffffffffffffffffffff021916908373ffffffffffffffffffffffffffffffffffffffff160217905550600160003373ffffffffffffffffffffffffffffffffffffffff1673ffffffffffffffffffffffffffffffffffffffff1681526020019081526020016000206005016002866040516133aa9190614d0c565b908152602001604051809103902060009054906101000a900473ffffffffffffffffffffffffffffffffffffffff169080600181540180825580915050600190039060005260206000200160009091909190916101000a81548173ffffffffffffffffffffffffffffffffffffffff021916908373ffffffffffffffffffffffffffffffffffffffff1602179055505050505050565b606060008060006060338073ffffffffffffffffffffffffffffffffffffffff16600160008373ffffffffffffffffffffffffffffffffffffffff1673ffffffffffffffffffffffffffffffffffffffff16815260200190815260200160002060000160009054906101000a900473ffffffffffffffffffffffffffffffffffffffff1673ffffffffffffffffffffffffffffffffffffffff161461351a576040517f08c379a000000000000000000000000000000000000000000000000000000000815260040161351190614f20565b60405180910390fd5b33600160008273ffffffffffffffffffffffffffffffffffffffff1673ffffffffffffffffffffffffffffffffffffffff16815260200190815260200160002060030160019054906101000a900460ff166135aa576040517f08c379a00000000000000000000000000000000000000000000000000000000081526004016135a190614fc0565b60405180910390fd5b33600160008273ffffffffffffffffffffffffffffffffffffffff1673ffffffffffffffffffffffffffffffffffffffff16815260200190815260200160002060030160009054906101000a900460ff1661363a576040517f08c379a000000000000000000000000000000000000000000000000000000000815260040161363190614f80565b60405180910390fd5b886001600060028360405161364f9190614d0c565b908152602001604051809103902060009054906101000a900473ffffffffffffffffffffffffffffffffffffffff1673ffffffffffffffffffffffffffffffffffffffff1673ffffffffffffffffffffffffffffffffffffffff16815260200190815260200160002060030160019054906101000a900460ff16613708576040517f08c379a00000000000000000000000000000000000000000000000000000000081526004016136ff90614f40565b60405180910390fd5b600115156001600060028d6040516137209190614d0c565b908152602001604051809103902060009054906101000a900473ffffffffffffffffffffffffffffffffffffffff1673ffffffffffffffffffffffffffffffffffffffff1673ffffffffffffffffffffffffffffffffffffffff16815260200190815260200160002060030160019054906101000a900460ff161515146137dc576040517f08c379a00000000000000000000000000000000000000000000000000000000081526004016137d390614fe0565b60405180910390fd5b600115156001600060028d6040516137f49190614d0c565b908152602001604051809103902060009054906101000a900473ffffffffffffffffffffffffffffffffffffffff1673ffffffffffffffffffffffffffffffffffffffff1673ffffffffffffffffffffffffffffffffffffffff16815260200190815260200160002060030160009054906101000a900460ff1615151415613b50576001600060028c60405161388a9190614d0c565b908152602001604051809103902060009054906101000a900473ffffffffffffffffffffffffffffffffffffffff1673ffffffffffffffffffffffffffffffffffffffff1673ffffffffffffffffffffffffffffffffffffffff1681526020019081526020016000206001016001600060028d60405161390a9190614d0c565b908152602001604051809103902060009054906101000a900473ffffffffffffffffffffffffffffffffffffffff1673ffffffffffffffffffffffffffffffffffffffff1673ffffffffffffffffffffffffffffffffffffffff168152602001908152602001600020600401805490506001600060028e60405161398e9190614d0c565b908152602001604051809103902060009054906101000a900473ffffffffffffffffffffffffffffffffffffffff1673ffffffffffffffffffffffffffffffffffffffff1673ffffffffffffffffffffffffffffffffffffffff168152602001908152602001600020600501805490506001600060028f604051613a129190614d0c565b908152602001604051809103902060009054906101000a900473ffffffffffffffffffffffffffffffffffffffff1673ffffffffffffffffffffffffffffffffffffffff1673ffffffffffffffffffffffffffffffffffffffff16815260200190815260200160002060020154838054613a8b906152a4565b80601f0160208091040260200160405190810160405280929190818152602001828054613ab7906152a4565b8015613b045780601f10613ad957610100808354040283529160200191613b04565b820191906000526020600020905b815481529060010190602001808311613ae757829003601f168201915b505050505093506040518060400160405280600681526020017f4f6e6c696e65000000000000000000000000000000000000000000000000000081525098509850985098509850613e26565b6001600060028c604051613b649190614d0c565b908152602001604051809103902060009054906101000a900473ffffffffffffffffffffffffffffffffffffffff1673ffffffffffffffffffffffffffffffffffffffff1673ffffffffffffffffffffffffffffffffffffffff1681526020019081526020016000206001016001600060028d604051613be49190614d0c565b908152602001604051809103902060009054906101000a900473ffffffffffffffffffffffffffffffffffffffff1673ffffffffffffffffffffffffffffffffffffffff1673ffffffffffffffffffffffffffffffffffffffff168152602001908152602001600020600401805490506001600060028e604051613c689190614d0c565b908152602001604051809103902060009054906101000a900473ffffffffffffffffffffffffffffffffffffffff1673ffffffffffffffffffffffffffffffffffffffff1673ffffffffffffffffffffffffffffffffffffffff168152602001908152602001600020600501805490506001600060028f604051613cec9190614d0c565b908152602001604051809103902060009054906101000a900473ffffffffffffffffffffffffffffffffffffffff1673ffffffffffffffffffffffffffffffffffffffff1673ffffffffffffffffffffffffffffffffffffffff16815260200190815260200160002060020154838054613d65906152a4565b80601f0160208091040260200160405190810160405280929190818152602001828054613d91906152a4565b8015613dde5780601f10613db357610100808354040283529160200191613dde565b820191906000526020600020905b815481529060010190602001808311613dc157829003601f168201915b505050505093506040518060400160405280600781526020017f4f66666c696e6500000000000000000000000000000000000000000000000000815250985098509850985098505b5050505091939590929450565b6060338073ffffffffffffffffffffffffffffffffffffffff16600160008373ffffffffffffffffffffffffffffffffffffffff1673ffffffffffffffffffffffffffffffffffffffff16815260200190815260200160002060000160009054906101000a900473ffffffffffffffffffffffffffffffffffffffff1673ffffffffffffffffffffffffffffffffffffffff1614613f06576040517f08c379a0000000000000000000000000000000000000000000000000000000008152600401613efd90614f20565b60405180910390fd5b33600160008273ffffffffffffffffffffffffffffffffffffffff1673ffffffffffffffffffffffffffffffffffffffff16815260200190815260200160002060030160019054906101000a900460ff16613f96576040517f08c379a0000000000000000000000000000000000000000000000000000000008152600401613f8d90614fc0565b60405180910390fd5b33600160008273ffffffffffffffffffffffffffffffffffffffff1673ffffffffffffffffffffffffffffffffffffffff16815260200190815260200160002060030160009054906101000a900460ff16614026576040517f08c379a000000000000000000000000000000000000000000000000000000000815260040161401d90614f80565b60405180910390fd5b600160003373ffffffffffffffffffffffffffffffffffffffff1673ffffffffffffffffffffffffffffffffffffffff1681526020019081526020016000206001018054614073906152a4565b80601f016020809104026020016040519081016040528092919081815260200182805461409f906152a4565b80156140ec5780601f106140c1576101008083540402835291602001916140ec565b820191906000526020600020905b8154815290600101906020018083116140cf57829003601f168201915b5050505050935050505090565b6060600160008373ffffffffffffffffffffffffffffffffffffffff1673ffffffffffffffffffffffffffffffffffffffff1681526020019081526020016000206001018054614148906152a4565b80601f0160208091040260200160405190810160405280929190818152602001828054614174906152a4565b80156141c15780601f10614196576101008083540402835291602001916141c1565b820191906000526020600020905b8154815290600101906020018083116141a457829003601f168201915b50505050509050919050565b6000806009600084815260200190815260200160002080548060200260200160405190810160405280929190818152602001828054801561426357602002820191906000526020600020905b8160009054906101000a900473ffffffffffffffffffffffffffffffffffffffff1673ffffffffffffffffffffffffffffffffffffffff1681526020019060010190808311614219575b5050505050905060005b8151811015614308578181815181106142af577f4e487b7100000000000000000000000000000000000000000000000000000000600052603260045260246000fd5b602002602001015173ffffffffffffffffffffffffffffffffffffffff163373ffffffffffffffffffffffffffffffffffffffff1614156142f55760019250505061430b565b8080614300906152d6565b91505061426d565b50505b919050565b33600160008273ffffffffffffffffffffffffffffffffffffffff1673ffffffffffffffffffffffffffffffffffffffff16815260200190815260200160002060030160019054906101000a900460ff166143a0576040517f08c379a000000000000000000000000000000000000000000000000000000000815260040161439790614fc0565b60405180910390fd5b33600160008273ffffffffffffffffffffffffffffffffffffffff1673ffffffffffffffffffffffffffffffffffffffff16815260200190815260200160002060030160009054906101000a900460ff16614430576040517f08c379a000000000000000000000000000000000000000000000000000000000815260040161442790614f80565b60405180910390fd5b6144398361252c565b15614479576040517f08c379a000000000000000000000000000000000000000000000000000000000815260040161447090615020565b60405180910390fd5b600a6000848152602001908152602001600020339080600181540180825580915050600190039060005260206000200160009091909190916101000a81548173ffffffffffffffffffffffffffffffffffffffff021916908373ffffffffffffffffffffffffffffffffffffffff160217905550505050565b8280546144fe906152a4565b90600052602060002090601f0160209004810192826145205760008555614567565b82601f1061453957805160ff1916838001178555614567565b82800160010185558215614567579182015b8281111561456657825182559160200191906001019061454b565b5b5090506145749190614578565b5090565b5b80821115614591576000816000905550600101614579565b5090565b60006145a86145a384615119565b6150e8565b9050828152602081018484840111156145c057600080fd5b6145cb848285615262565b509392505050565b6000813590506145e2816153bd565b92915050565b600082601f8301126145f957600080fd5b8135614609848260208601614595565b91505092915050565b600081359050614621816153d4565b92915050565b60006020828403121561463957600080fd5b6000614647848285016145d3565b91505092915050565b60006020828403121561466257600080fd5b600082013567ffffffffffffffff81111561467c57600080fd5b614688848285016145e8565b91505092915050565b600080604083850312156146a457600080fd5b600083013567ffffffffffffffff8111156146be57600080fd5b6146ca858286016145e8565b925050602083013567ffffffffffffffff8111156146e757600080fd5b6146f3858286016145e8565b9150509250929050565b60006020828403121561470f57600080fd5b600061471d84828501614612565b91505092915050565b60006147328383614752565b60208301905092915050565b600061474a8383614c6a565b905092915050565b61475b81615208565b82525050565b61476a81615208565b82525050565b600061477b8261517e565b61478581856151b9565b935061479083615149565b8060005b838110156147c15781516147a88882614726565b97506147b38361519f565b925050600181019050614794565b5085935050505092915050565b60006147d982615189565b6147e381856151ca565b9350836020820285016147f585615159565b8060005b858110156148315784840389528151614812858261473e565b945061481d836151ac565b925060208a019950506001810190506147f9565b50829750879550505050505092915050565b61484c8161521a565b82525050565b61485b81615250565b82525050565b600061486c82615194565b61487681856151db565b9350614886818560208601615271565b61488f816153ac565b840191505092915050565b60006148a582615194565b6148af81856151ec565b93506148bf818560208601615271565b6148c8816153ac565b840191505092915050565b60006148de82615194565b6148e881856151fd565b93506148f8818560208601615271565b80840191505092915050565b60008154614911816152a4565b61491b81866151ec565b9450600182166000811461493657600181146149485761497b565b60ff198316865260208601935061497b565b61495185615169565b60005b8381101561497357815481890152600182019150602081019050614954565b808801955050505b50505092915050565b60006149916011836151ec565b91507f55736572206973206e6f742045786973740000000000000000000000000000006000830152602082019050919050565b60006149d1600d836151ec565b91507f4e6f207573657220666f756e64000000000000000000000000000000000000006000830152602082019050919050565b6000614a116029836151ec565b91507f4f6e6c79206d616e6167657220686176652061636365737320746f207468697360008301527f2066756e6374696f6e00000000000000000000000000000000000000000000006020830152604082019050919050565b6000614a776015836151ec565b91507f596f7520617265206e6f74207369676e656420496e00000000000000000000006000830152602082019050919050565b6000614ab76019836151ec565b91507f596f75206861766520616c726561647920466f6c6c6f776564000000000000006000830152602082019050919050565b6000614af7601b836151ec565b91507f54686973204163636f756e7420697320646561637469766174656400000000006000830152602082019050919050565b6000614b37601a836151ec565b91507f54686973204163636f75742069732064656163746976617465640000000000006000830152602082019050919050565b6000614b776018836151ec565b91507f6d616e61676572206d757374206e6f74206265205573657200000000000000006000830152602082019050919050565b6000614bb7601b836151ec565b91507f596f75206861766520616c72656164792052652d5477697474656400000000006000830152602082019050919050565b6000614bf76016836151ec565b91507f596f75206861766520616c7265616479204c696b6564000000000000000000006000830152602082019050919050565b6000614c376016836151ec565b91507f4163636f756e7420616c726561647920457869737473000000000000000000006000830152602082019050919050565b600060a083016000830151614c826000860182614cee565b506020830151614c956020860182614cee565b5060408301518482036040860152614cad8282614861565b91505060608301518482036060860152614cc78282614861565b91505060808301518482036080860152614ce18282614861565b9150508091505092915050565b614cf781615246565b82525050565b614d0681615246565b82525050565b6000614d1882846148d3565b915081905092915050565b6000602082019050614d386000830184614761565b92915050565b600060a082019050614d536000830188614761565b8181036020830152614d65818761489a565b9050614d746040830186614cfd565b614d816060830185614852565b614d8e6080830184614852565b9695505050505050565b600060a082019050614dad6000830188614761565b8181036020830152614dbf8187614904565b9050614dce6040830186614cfd565b614ddb6060830185614cfd565b614de86080830184614cfd565b9695505050505050565b60006020820190508181036000830152614e0c8184614770565b905092915050565b60006020820190508181036000830152614e2e81846147ce565b905092915050565b6000602082019050614e4b6000830184614843565b92915050565b60006020820190508181036000830152614e6b818461489a565b905092915050565b60006080820190508181036000830152614e8d818761489a565b9050614e9c6020830186614cfd565b614ea96040830185614cfd565b614eb66060830184614cfd565b95945050505050565b600060a0820190508181036000830152614ed9818861489a565b9050614ee86020830187614cfd565b614ef56040830186614cfd565b614f026060830185614cfd565b8181036080830152614f14818461489a565b90509695505050505050565b60006020820190508181036000830152614f3981614984565b9050919050565b60006020820190508181036000830152614f59816149c4565b9050919050565b60006020820190508181036000830152614f7981614a04565b9050919050565b60006020820190508181036000830152614f9981614a6a565b9050919050565b60006020820190508181036000830152614fb981614aaa565b9050919050565b60006020820190508181036000830152614fd981614aea565b9050919050565b60006020820190508181036000830152614ff981614b2a565b9050919050565b6000602082019050818103600083015261501981614b6a565b9050919050565b6000602082019050818103600083015261503981614baa565b9050919050565b6000602082019050818103600083015261505981614bea565b9050919050565b6000602082019050818103600083015261507981614c2a565b9050919050565b600060a0820190506150956000830188614cfd565b6150a26020830187614cfd565b81810360408301526150b48186614904565b905081810360608301526150c8818561489a565b905081810360808301526150dc818461489a565b90509695505050505050565b6000604051905081810181811067ffffffffffffffff8211171561510f5761510e61537d565b5b8060405250919050565b600067ffffffffffffffff8211156151345761513361537d565b5b601f19601f8301169050602081019050919050565b6000819050602082019050919050565b6000819050602082019050919050565b60008190508160005260206000209050919050565b600081519050919050565b600081519050919050565b600081519050919050565b6000602082019050919050565b6000602082019050919050565b600082825260208201905092915050565b600082825260208201905092915050565b600082825260208201905092915050565b600082825260208201905092915050565b600081905092915050565b600061521382615226565b9050919050565b60008115159050919050565b600073ffffffffffffffffffffffffffffffffffffffff82169050919050565b6000819050919050565b600061525b82615246565b9050919050565b82818337600083830152505050565b60005b8381101561528f578082015181840152602081019050615274565b8381111561529e576000848401525b50505050565b600060028204905060018216806152bc57607f821691505b602082108114156152d0576152cf61534e565b5b50919050565b60006152e182615246565b91507fffffffffffffffffffffffffffffffffffffffffffffffffffffffffffffffff8214156153145761531361531f565b5b600182019050919050565b7f4e487b7100000000000000000000000000000000000000000000000000000000600052601160045260246000fd5b7f4e487b7100000000000000000000000000000000000000000000000000000000600052602260045260246000fd5b7f4e487b7100000000000000000000000000000000000000000000000000000000600052604160045260246000fd5b6000601f19601f8301169050919050565b6153c681615208565b81146153d157600080fd5b50565b6153dd81615246565b81146153e857600080fd5b5056fea264697066735822122038bd2546b55c716aa013cdbd912b43907637f80cda28322304e3ae0e07b6b02664736f6c63430008000033",
  "immutableReferences": {},
  "source": "pragma solidity ^0.8.0;\r\n\r\ncontract Dwitter {\r\n    address payable manager;    \r\n    struct User {\r\n        address userAddress;\r\n        string userName;\r\n        uint accountCreatedON;\r\n        bool signIn;\r\n        bool accountStatus;\r\n        address[] followers;\r\n        address[] following;\r\n    }\r\n    \r\n    mapping(address=>User) private users;\r\n    mapping(string=>address) private userNameToAddress;\r\n    \r\n    event newUser(address userAddress, string userName, uint accountCreatedON, uint followers, uint following);\r\n    event newTweet(uint postID, uint postTimeStamp, string userName, string content, string tag);\r\n    \r\n    event userSignIN(address userAddress, string userName, uint accountCreatedON, uint followers, uint following);\r\n    \r\n    \r\n    struct Post {\r\n        uint postId;\r\n        uint postTimeStamp;\r\n        string userName;\r\n        string content;\r\n        string tag;\r\n    }\r\n    \r\n    uint postCount;\r\n    mapping(address=>Post[]) private posts;\r\n    Post[] allPosts;\r\n    mapping(uint=>Post) private idToPost;\r\n    mapping(uint=>address) private idToUser;\r\n    // mapping(uint => mapping(address => Post)) postIdToUser;\r\n    mapping(string=>Post[]) private tagsToPost;\r\n    \r\n    mapping(uint=>address[]) private likes;\r\n    mapping(uint=>address[]) private reTweets;\r\n    \r\n    constructor() {\r\n        manager = payable(msg.sender);\r\n    }\r\n    \r\n    // Modifiers\r\n    \r\n    modifier userExist(address _userAddress) {\r\n        require(users[_userAddress].userAddress == _userAddress, \"User is not Exist\");\r\n        _;\r\n    }\r\n    modifier checkUser(string memory _userName) {\r\n        require(users[userNameToAddress[_userName]].accountStatus, \"No user found\");\r\n        _;\r\n    }\r\n    \r\n    modifier checkSignIn(address _userAddress) {\r\n        require(users[_userAddress].signIn, \"You are not signed In\");\r\n        _;\r\n    }\r\n    \r\n    modifier checkSignOut(address _userAddress) {\r\n        require(!users[_userAddress].signIn, \"You are not signed out\");\r\n        _;\r\n    }\r\n    \r\n    modifier checkAccountStatus(address _userAddress) {\r\n        require(users[_userAddress].accountStatus, \"This Account is deactivated\");\r\n        _;\r\n    }\r\n    \r\n    modifier onlymanager(){\r\n        require(msg.sender == manager, \"Only manager have access to this function\");\r\n        _;\r\n    }\r\n    \r\n    // modifier checkFollowed(address _userAddress) {\r\n    //     require(users[_userAddress].following == users[msg.sender].followers);\r\n    //     _;\r\n    // }\r\n    \r\n    // Functions\r\n    \r\n    function signUP(string memory _userName) public {\r\n        require(msg.sender != manager, \"manager must not be User\");\r\n        require(users[msg.sender].userAddress == address(0), \"Account already Exists\");\r\n        // User memory user = User(msg.sender, _userName, block.timestamp, true, true, 0);\r\n        // users[msg.sender] = user;\r\n        userNameToAddress[_userName] = msg.sender;\r\n        users[msg.sender].userAddress = msg.sender;\r\n        users[msg.sender].userName = _userName;\r\n        users[msg.sender].accountCreatedON = block.timestamp;\r\n        users[msg.sender].signIn = true;\r\n        users[msg.sender].accountStatus = true;\r\n        \r\n        emit newUser(msg.sender, _userName, users[msg.sender].accountCreatedON, 0, 0);\r\n    }\r\n    \r\n    function searchUser(string memory _userName) public userExist(msg.sender) checkAccountStatus(msg.sender) checkSignIn(msg.sender) checkUser(_userName) view returns(string memory, uint, uint, uint, string memory) {\r\n        require(users[userNameToAddress[_userName]].accountStatus == true, \"This Accout is deactivated\");\r\n        if(users[userNameToAddress[_userName]].signIn == true) {\r\n            return(users[userNameToAddress[_userName]].userName, users[userNameToAddress[_userName]].followers.length, users[userNameToAddress[_userName]].following.length, users[userNameToAddress[_userName]].accountCreatedON, \"Online\");\r\n        }else {\r\n            return(users[userNameToAddress[_userName]].userName, users[userNameToAddress[_userName]].followers.length,users[userNameToAddress[_userName]].following.length, users[userNameToAddress[_userName]].accountCreatedON, \"Offline\");\r\n        }\r\n    }\r\n\r\n    function getUserByAddress() public userExist(msg.sender) checkAccountStatus(msg.sender) checkSignIn(msg.sender) view returns(string memory, uint, uint, uint) {\r\n        return(users[msg.sender].userName, users[msg.sender].followers.length, users[msg.sender].following.length, users[msg.sender].accountCreatedON);\r\n    }\r\n    \r\n    function getUserNameByAddress() public userExist(msg.sender) checkAccountStatus(msg.sender) checkSignIn(msg.sender) view returns(string memory) {\r\n        return(users[msg.sender].userName);\r\n    }\r\n    \r\n    \r\n    \r\n    function makeSignIn() public userExist(msg.sender) {\r\n        // If person deactivated by themself then they can active their account by signIn again\r\n        if(!users[msg.sender].accountStatus) {\r\n            users[msg.sender].accountStatus = true;\r\n        }\r\n        else {\r\n            users[msg.sender].signIn = true;\r\n        }\r\n        \r\n        emit userSignIN(msg.sender, users[msg.sender].userName, users[msg.sender].accountCreatedON, users[msg.sender].followers.length, users[msg.sender].following.length);\r\n    }\r\n    function makeSignOut() public userExist(msg.sender) checkSignIn(msg.sender){\r\n        users[msg.sender].signIn = false;\r\n    }\r\n    \r\n    function accountDeactive() public userExist(msg.sender) checkSignIn(msg.sender) {\r\n        users[msg.sender].accountStatus = false;\r\n    }\r\n    \r\n    function tweet(string memory _content, string memory _tag) public checkAccountStatus(msg.sender) userExist(msg.sender) checkSignIn(msg.sender) {\r\n        postCount++;\r\n        string memory _userName = getUserNameByAddress();\r\n        Post memory post = Post(postCount, block.timestamp, _userName, _content, _tag);\r\n        posts[msg.sender].push(post);\r\n        tagsToPost[_tag].push(post);\r\n        idToPost[postCount] = post;\r\n        idToUser[postCount] = msg.sender;\r\n        allPosts.push(post);\r\n        \r\n        emit newTweet(postCount, idToPost[postCount].postTimeStamp, users[msg.sender].userName, _content, _tag);\r\n    }\r\n    \r\n    function getTweetsOfUser(string memory _userName)public userExist(msg.sender) checkSignIn(msg.sender) checkAccountStatus(userNameToAddress[_userName]) view returns(Post[] memory) {\r\n        return(posts[userNameToAddress[_userName]]);\r\n    }\r\n    \r\n    function getUserByPostId(uint _postID)public userExist(msg.sender) checkSignIn(msg.sender) view returns(address){\r\n        return idToUser[_postID];\r\n    }\r\n    \r\n    function getAllPosts() public userExist(msg.sender) checkSignIn(msg.sender) view returns(Post[] memory) {\r\n        return allPosts;\r\n    }\r\n    \r\n    function getTagPost(string memory _tag) public checkAccountStatus(msg.sender) checkSignIn(msg.sender) view returns(Post[] memory) {\r\n        return tagsToPost[_tag];\r\n    }\r\n    \r\n    function followUser(string memory _userName) public userExist(msg.sender) checkSignIn(msg.sender) userExist(userNameToAddress[_userName]) checkAccountStatus(userNameToAddress[_userName]) {\r\n        require(!alreadyFollowed(_userName), \"You have already Followed\");\r\n        users[userNameToAddress[_userName]].followers.push(msg.sender);\r\n        users[msg.sender].following.push(userNameToAddress[_userName]);\r\n    }\r\n    \r\n    // function unfollow(string memory _userName)public userExist(msg.sender) checkSignIn(msg.sender) userExist(userNameToAddress[_userName]) checkAccountStatus(userNameToAddress[_userName]) {\r\n    //     address[] memory FollowedAddress = users[userNameToAddress[_userName]].followers;\r\n        \r\n    //     for(uint i = 0; i<FollowedAddress.length; i++){\r\n    //         if(msg.sender == FollowedAddress[i]){\r\n    //             users[userNameToAddress[_userName]].followers.pop();\r\n    //         }\r\n    //     }\r\n    // }\r\n    \r\n    function alreadyFollowed(string memory _userName) public view returns(bool){\r\n        \r\n        address[] memory FollowedAddress = users[userNameToAddress[_userName]].followers;\r\n        \r\n        for(uint i=0; i < FollowedAddress.length; i++){\r\n            if(msg.sender == FollowedAddress[i]){\r\n                return true;\r\n            }\r\n        }\r\n    }\r\n    \r\n    function getFollowers() public view returns(address[] memory){\r\n        address[] memory FollowedAddress = users[msg.sender].followers;\r\n        return FollowedAddress;\r\n    }\r\n    \r\n    function getFollowersName(address _userAddress) public view returns(string memory){\r\n        return(users[_userAddress].userName);\r\n    }\r\n        \r\n    \r\n    function likePost(uint _postID) public checkAccountStatus(msg.sender) checkSignIn(msg.sender){\r\n        require(!alreadyLiked(_postID), \"You have already Liked\");\r\n        likes[_postID].push(msg.sender);\r\n    }\r\n    \r\n    function alreadyLiked(uint _postID) public view returns(bool){\r\n        address[] memory likedAddress = likes[_postID];\r\n        \r\n        for(uint i=0; i < likedAddress.length; i++){\r\n            if(msg.sender == likedAddress[i]){\r\n                return true;\r\n            }\r\n        }\r\n    }\r\n    \r\n    function getLikesByPostID(uint _postID) public checkSignIn(msg.sender) view returns(address[] memory) {\r\n        return likes[_postID];\r\n    }\r\n    \r\n    function reTweet(uint _postID) public checkAccountStatus(msg.sender) checkSignIn(msg.sender){\r\n        require(!alreadyRetweeted(_postID), \"You have already Re-Twitted\");\r\n        reTweets[_postID].push(msg.sender);\r\n    }\r\n    \r\n    function alreadyRetweeted(uint _postID) public view returns(bool){\r\n        address[] memory RetweetedAddress = reTweets[_postID];\r\n        \r\n        for(uint i=0; i < RetweetedAddress.length; i++){\r\n            if(msg.sender == RetweetedAddress[i]){\r\n                return true;\r\n            }\r\n        }\r\n    }\r\n    \r\n    function getReTweetByPostID(uint _postID) public checkSignIn(msg.sender) view returns(address[] memory) {\r\n        return reTweets[_postID];\r\n    }\r\n    \r\n    \r\n    function destroy() public onlymanager {\r\n        selfdestruct(manager);\r\n    }\r\n}",
  "sourcePath": "F:/Courses/Symbiosis_Blockchain/Dwitter_javascript/contracts/Dwitter.sol",
  "compiler": {
    "name": "solc",
    "version": "0.8.0+commit.c7dfd78e.Emscripten.clang"
  },
  "schemaVersion": "3.3.4",
  "updatedAt": "2021-04-01T06:46:15.741Z",
  "networkType": "ethereum",
  "devdoc": {
    "kind": "dev",
    "methods": {},
    "version": 1
  },
  "userdoc": {
    "kind": "user",
    "methods": {},
    "version": 1
  }
}