{
  "contractName": "Dwitter",
  "abi": [
    {
      "inputs": [],
      "stateMutability": "nonpayable",
      "type": "constructor"
    },
    {
      "anonymous": false,
      "inputs": [
        {
          "indexed": false,
          "internalType": "uint256",
          "name": "postID",
          "type": "uint256"
        },
        {
          "indexed": false,
          "internalType": "string",
          "name": "userName",
          "type": "string"
        },
        {
          "indexed": false,
          "internalType": "string",
          "name": "content",
          "type": "string"
        },
        {
          "indexed": false,
          "internalType": "string",
          "name": "tag",
          "type": "string"
        }
      ],
      "name": "newTweet",
      "type": "event"
    },
    {
      "anonymous": false,
      "inputs": [
        {
          "indexed": false,
          "internalType": "address",
          "name": "userAddress",
          "type": "address"
        },
        {
          "indexed": false,
          "internalType": "string",
          "name": "userName",
          "type": "string"
        },
        {
          "indexed": false,
          "internalType": "uint256",
          "name": "accountCreatedON",
          "type": "uint256"
        },
        {
          "indexed": false,
          "internalType": "uint256",
          "name": "followers",
          "type": "uint256"
        },
        {
          "indexed": false,
          "internalType": "uint256",
          "name": "following",
          "type": "uint256"
        }
      ],
      "name": "newUser",
      "type": "event"
    },
    {
      "anonymous": false,
      "inputs": [
        {
          "indexed": false,
          "internalType": "address",
          "name": "userAddress",
          "type": "address"
        },
        {
          "indexed": false,
          "internalType": "string",
          "name": "userName",
          "type": "string"
        },
        {
          "indexed": false,
          "internalType": "uint256",
          "name": "accountCreatedON",
          "type": "uint256"
        },
        {
          "indexed": false,
          "internalType": "uint256",
          "name": "followers",
          "type": "uint256"
        },
        {
          "indexed": false,
          "internalType": "uint256",
          "name": "following",
          "type": "uint256"
        }
      ],
      "name": "userSignIN",
      "type": "event"
    },
    {
      "inputs": [
        {
          "internalType": "address",
          "name": "",
          "type": "address"
        }
      ],
      "name": "users",
      "outputs": [
        {
          "internalType": "address",
          "name": "userAddress",
          "type": "address"
        },
        {
          "internalType": "string",
          "name": "userName",
          "type": "string"
        },
        {
          "internalType": "uint256",
          "name": "accountCreatedON",
          "type": "uint256"
        },
        {
          "internalType": "bool",
          "name": "signIn",
          "type": "bool"
        },
        {
          "internalType": "bool",
          "name": "accountStatus",
          "type": "bool"
        }
      ],
      "stateMutability": "view",
      "type": "function",
      "constant": true
    },
    {
      "inputs": [
        {
          "internalType": "string",
          "name": "_userName",
          "type": "string"
        }
      ],
      "name": "signUP",
      "outputs": [],
      "stateMutability": "nonpayable",
      "type": "function"
    },
    {
      "inputs": [
        {
          "internalType": "string",
          "name": "_userName",
          "type": "string"
        }
      ],
      "name": "searchUser",
      "outputs": [
        {
          "internalType": "string",
          "name": "",
          "type": "string"
        },
        {
          "internalType": "uint256",
          "name": "",
          "type": "uint256"
        },
        {
          "internalType": "uint256",
          "name": "",
          "type": "uint256"
        },
        {
          "internalType": "uint256",
          "name": "",
          "type": "uint256"
        },
        {
          "internalType": "string",
          "name": "",
          "type": "string"
        }
      ],
      "stateMutability": "view",
      "type": "function",
      "constant": true
    },
    {
      "inputs": [],
      "name": "getUserByAddress",
      "outputs": [
        {
          "internalType": "string",
          "name": "",
          "type": "string"
        },
        {
          "internalType": "uint256",
          "name": "",
          "type": "uint256"
        },
        {
          "internalType": "uint256",
          "name": "",
          "type": "uint256"
        },
        {
          "internalType": "uint256",
          "name": "",
          "type": "uint256"
        }
      ],
      "stateMutability": "view",
      "type": "function",
      "constant": true
    },
    {
      "inputs": [],
      "name": "makeSignIn",
      "outputs": [],
      "stateMutability": "nonpayable",
      "type": "function"
    },
    {
      "inputs": [],
      "name": "makeSignOut",
      "outputs": [],
      "stateMutability": "nonpayable",
      "type": "function"
    },
    {
      "inputs": [],
      "name": "accountDeactive",
      "outputs": [],
      "stateMutability": "nonpayable",
      "type": "function"
    },
    {
      "inputs": [
        {
          "internalType": "string",
          "name": "_content",
          "type": "string"
        },
        {
          "internalType": "string",
          "name": "_tag",
          "type": "string"
        }
      ],
      "name": "tweet",
      "outputs": [],
      "stateMutability": "nonpayable",
      "type": "function"
    },
    {
      "inputs": [
        {
          "internalType": "string",
          "name": "_userName",
          "type": "string"
        }
      ],
      "name": "getTweetsOfUser",
      "outputs": [
        {
          "components": [
            {
              "internalType": "uint256",
              "name": "postId",
              "type": "uint256"
            },
            {
              "internalType": "string",
              "name": "content",
              "type": "string"
            },
            {
              "internalType": "string",
              "name": "tag",
              "type": "string"
            }
          ],
          "internalType": "struct Dwitter.Post[]",
          "name": "",
          "type": "tuple[]"
        }
      ],
      "stateMutability": "view",
      "type": "function",
      "constant": true
    },
    {
      "inputs": [
        {
          "internalType": "uint256",
          "name": "_postID",
          "type": "uint256"
        }
      ],
      "name": "getUserByPostId",
      "outputs": [
        {
          "internalType": "address",
          "name": "",
          "type": "address"
        }
      ],
      "stateMutability": "view",
      "type": "function",
      "constant": true
    },
    {
      "inputs": [],
      "name": "getAllPosts",
      "outputs": [
        {
          "components": [
            {
              "internalType": "uint256",
              "name": "postId",
              "type": "uint256"
            },
            {
              "internalType": "string",
              "name": "content",
              "type": "string"
            },
            {
              "internalType": "string",
              "name": "tag",
              "type": "string"
            }
          ],
          "internalType": "struct Dwitter.Post[]",
          "name": "",
          "type": "tuple[]"
        }
      ],
      "stateMutability": "view",
      "type": "function",
      "constant": true
    },
    {
      "inputs": [
        {
          "internalType": "string",
          "name": "_tag",
          "type": "string"
        }
      ],
      "name": "getTagPost",
      "outputs": [
        {
          "components": [
            {
              "internalType": "uint256",
              "name": "postId",
              "type": "uint256"
            },
            {
              "internalType": "string",
              "name": "content",
              "type": "string"
            },
            {
              "internalType": "string",
              "name": "tag",
              "type": "string"
            }
          ],
          "internalType": "struct Dwitter.Post[]",
          "name": "",
          "type": "tuple[]"
        }
      ],
      "stateMutability": "view",
      "type": "function",
      "constant": true
    },
    {
      "inputs": [
        {
          "internalType": "string",
          "name": "_userName",
          "type": "string"
        }
      ],
      "name": "followUser",
      "outputs": [],
      "stateMutability": "nonpayable",
      "type": "function"
    },
    {
      "inputs": [
        {
          "internalType": "string",
          "name": "_userName",
          "type": "string"
        }
      ],
      "name": "alreadyFollowed",
      "outputs": [
        {
          "internalType": "bool",
          "name": "",
          "type": "bool"
        }
      ],
      "stateMutability": "view",
      "type": "function",
      "constant": true
    },
    {
      "inputs": [
        {
          "internalType": "uint256",
          "name": "_postID",
          "type": "uint256"
        }
      ],
      "name": "likePost",
      "outputs": [],
      "stateMutability": "nonpayable",
      "type": "function"
    },
    {
      "inputs": [
        {
          "internalType": "uint256",
          "name": "_postID",
          "type": "uint256"
        }
      ],
      "name": "alreadyLiked",
      "outputs": [
        {
          "internalType": "bool",
          "name": "",
          "type": "bool"
        }
      ],
      "stateMutability": "view",
      "type": "function",
      "constant": true
    },
    {
      "inputs": [
        {
          "internalType": "uint256",
          "name": "_postID",
          "type": "uint256"
        }
      ],
      "name": "getLikesByPostID",
      "outputs": [
        {
          "internalType": "address[]",
          "name": "",
          "type": "address[]"
        }
      ],
      "stateMutability": "view",
      "type": "function",
      "constant": true
    },
    {
      "inputs": [
        {
          "internalType": "uint256",
          "name": "_postID",
          "type": "uint256"
        }
      ],
      "name": "reTweet",
      "outputs": [],
      "stateMutability": "nonpayable",
      "type": "function"
    },
    {
      "inputs": [
        {
          "internalType": "uint256",
          "name": "_postID",
          "type": "uint256"
        }
      ],
      "name": "alreadyRetweeted",
      "outputs": [
        {
          "internalType": "bool",
          "name": "",
          "type": "bool"
        }
      ],
      "stateMutability": "view",
      "type": "function",
      "constant": true
    },
    {
      "inputs": [
        {
          "internalType": "uint256",
          "name": "_postID",
          "type": "uint256"
        }
      ],
      "name": "getReTweetByPostID",
      "outputs": [
        {
          "internalType": "address[]",
          "name": "",
          "type": "address[]"
        }
      ],
      "stateMutability": "view",
      "type": "function",
      "constant": true
    }
  ],
  "bytecode": "0x608060405234801561001057600080fd5b50336000806101000a81548173ffffffffffffffffffffffffffffffffffffffff021916908373ffffffffffffffffffffffffffffffffffffffff160217905550614ce6806100606000396000f3fe608060405234801561001057600080fd5b506004361061012c5760003560e01c8063725009d3116100ad578063ad1ee23e11610071578063ad1ee23e14610336578063ae34a95514610366578063b3fae5fb14610382578063f12ca570146103b6578063f804fe46146103e65761012c565b8063725009d31461025657806373c38ea614610272578063799800b7146102a25780637e0a98e5146102d2578063a87430ba146103025761012c565b80632f403b4f116100f45780632f403b4f146101c157806330561100146101dd5780634015e369146101fb5780634073b1321461022b57806367758f5f1461024c5761012c565b8063100e42421461013157806315d0f8141461013b57806323283b161461014557806325aa0839146101615780632626969d14610191575b600080fd5b610139610402565b005b6101436105c2565b005b61015f600480360381019061015a9190613f9e565b6108f0565b005b61017b6004803603810190610176919061404b565b610d05565b60405161018891906145de565b60405180910390f35b6101ab60048036038101906101a6919061404b565b610ea5565b6040516101b89190614707565b60405180910390f35b6101db60048036038101906101d69190613fdf565b610fd7565b005b6101e56114e9565b6040516101f29190614729565b60405180910390f35b61021560048036038101906102109190613f9e565b6117d9565b6040516102229190614729565b60405180910390f35b610233611aa6565b6040516102439493929190614766565b60405180910390f35b610254611e4c565b005b610270600480360381019061026b919061404b565b61209d565b005b61028c6004803603810190610287919061404b565b61227f565b604051610299919061474b565b60405180910390f35b6102bc60048036038101906102b7919061404b565b6123c2565b6040516102c99190614707565b60405180910390f35b6102ec60048036038101906102e79190613f9e565b6124f4565b6040516102f99190614729565b60405180910390f35b61031c60048036038101906103179190613f75565b612930565b60405161032d9594939291906145f9565b60405180910390f35b610350600480360381019061034b9190613f9e565b612a28565b60405161035d919061474b565b60405180910390f35b610380600480360381019061037b9190613f9e565b612bd8565b005b61039c60048036038101906103979190613f9e565b613128565b6040516103ad9594939291906147b2565b60405180910390f35b6103d060048036038101906103cb919061404b565b613b1b565b6040516103dd919061474b565b60405180910390f35b61040060048036038101906103fb919061404b565b613c5e565b005b338073ffffffffffffffffffffffffffffffffffffffff16600160008373ffffffffffffffffffffffffffffffffffffffff1673ffffffffffffffffffffffffffffffffffffffff16815260200190815260200160002060000160009054906101000a900473ffffffffffffffffffffffffffffffffffffffff1673ffffffffffffffffffffffffffffffffffffffff16146104d3576040517f08c379a00000000000000000000000000000000000000000000000000000000081526004016104ca90614813565b60405180910390fd5b33600160008273ffffffffffffffffffffffffffffffffffffffff1673ffffffffffffffffffffffffffffffffffffffff16815260200190815260200160002060030160009054906101000a900460ff16610563576040517f08c379a000000000000000000000000000000000000000000000000000000000815260040161055a90614853565b60405180910390fd5b6000600160003373ffffffffffffffffffffffffffffffffffffffff1673ffffffffffffffffffffffffffffffffffffffff16815260200190815260200160002060030160006101000a81548160ff0219169083151502179055505050565b338073ffffffffffffffffffffffffffffffffffffffff16600160008373ffffffffffffffffffffffffffffffffffffffff1673ffffffffffffffffffffffffffffffffffffffff16815260200190815260200160002060000160009054906101000a900473ffffffffffffffffffffffffffffffffffffffff1673ffffffffffffffffffffffffffffffffffffffff1614610693576040517f08c379a000000000000000000000000000000000000000000000000000000000815260040161068a90614813565b60405180910390fd5b600160003373ffffffffffffffffffffffffffffffffffffffff1673ffffffffffffffffffffffffffffffffffffffff16815260200190815260200160002060030160019054906101000a900460ff166107465760018060003373ffffffffffffffffffffffffffffffffffffffff1673ffffffffffffffffffffffffffffffffffffffff16815260200190815260200160002060030160016101000a81548160ff0219169083151502179055506107a1565b60018060003373ffffffffffffffffffffffffffffffffffffffff1673ffffffffffffffffffffffffffffffffffffffff16815260200190815260200160002060030160006101000a81548160ff0219169083151502179055505b7fb6a5bd9f80f38eb06917356912c97a800a1a8b8aa63fa47ea6caaef9ecbfa53933600160003373ffffffffffffffffffffffffffffffffffffffff1673ffffffffffffffffffffffffffffffffffffffff168152602001908152602001600020600101600160003373ffffffffffffffffffffffffffffffffffffffff1673ffffffffffffffffffffffffffffffffffffffff16815260200190815260200160002060020154600160003373ffffffffffffffffffffffffffffffffffffffff1673ffffffffffffffffffffffffffffffffffffffff16815260200190815260200160002060040180549050600160003373ffffffffffffffffffffffffffffffffffffffff1673ffffffffffffffffffffffffffffffffffffffff168152602001908152602001600020600501805490506040516108e59594939291906146ad565b60405180910390a150565b60008054906101000a900473ffffffffffffffffffffffffffffffffffffffff1673ffffffffffffffffffffffffffffffffffffffff163373ffffffffffffffffffffffffffffffffffffffff16141561097f576040517f08c379a0000000000000000000000000000000000000000000000000000000008152600401610976906148d3565b60405180910390fd5b600073ffffffffffffffffffffffffffffffffffffffff16600160003373ffffffffffffffffffffffffffffffffffffffff1673ffffffffffffffffffffffffffffffffffffffff16815260200190815260200160002060000160009054906101000a900473ffffffffffffffffffffffffffffffffffffffff1673ffffffffffffffffffffffffffffffffffffffff1614610a50576040517f08c379a0000000000000000000000000000000000000000000000000000000008152600401610a4790614933565b60405180910390fd5b33600282604051610a6191906145c7565b908152602001604051809103902060006101000a81548173ffffffffffffffffffffffffffffffffffffffff021916908373ffffffffffffffffffffffffffffffffffffffff16021790555033600160003373ffffffffffffffffffffffffffffffffffffffff1673ffffffffffffffffffffffffffffffffffffffff16815260200190815260200160002060000160006101000a81548173ffffffffffffffffffffffffffffffffffffffff021916908373ffffffffffffffffffffffffffffffffffffffff16021790555080600160003373ffffffffffffffffffffffffffffffffffffffff1673ffffffffffffffffffffffffffffffffffffffff1681526020019081526020016000206001019080519060200190610b84929190613e40565b5042600160003373ffffffffffffffffffffffffffffffffffffffff1673ffffffffffffffffffffffffffffffffffffffff1681526020019081526020016000206002018190555060018060003373ffffffffffffffffffffffffffffffffffffffff1673ffffffffffffffffffffffffffffffffffffffff16815260200190815260200160002060030160006101000a81548160ff02191690831515021790555060018060003373ffffffffffffffffffffffffffffffffffffffff1673ffffffffffffffffffffffffffffffffffffffff16815260200190815260200160002060030160016101000a81548160ff0219169083151502179055507f9c24c08bfd9121dbc1e1a56bb425896672a3e9d51e141fb3dcffc84ccaf574fe3382600160003373ffffffffffffffffffffffffffffffffffffffff1673ffffffffffffffffffffffffffffffffffffffff16815260200190815260200160002060020154600080604051610cfa959493929190614653565b60405180910390a150565b6000338073ffffffffffffffffffffffffffffffffffffffff16600160008373ffffffffffffffffffffffffffffffffffffffff1673ffffffffffffffffffffffffffffffffffffffff16815260200190815260200160002060000160009054906101000a900473ffffffffffffffffffffffffffffffffffffffff1673ffffffffffffffffffffffffffffffffffffffff1614610dd8576040517f08c379a0000000000000000000000000000000000000000000000000000000008152600401610dcf90614813565b60405180910390fd5b33600160008273ffffffffffffffffffffffffffffffffffffffff1673ffffffffffffffffffffffffffffffffffffffff16815260200190815260200160002060030160009054906101000a900460ff16610e68576040517f08c379a0000000000000000000000000000000000000000000000000000000008152600401610e5f90614853565b60405180910390fd5b6007600085815260200190815260200160002060009054906101000a900473ffffffffffffffffffffffffffffffffffffffff1692505050919050565b606033600160008273ffffffffffffffffffffffffffffffffffffffff1673ffffffffffffffffffffffffffffffffffffffff16815260200190815260200160002060030160009054906101000a900460ff16610f37576040517f08c379a0000000000000000000000000000000000000000000000000000000008152600401610f2e90614853565b60405180910390fd5b60096000848152602001908152602001600020805480602002602001604051908101604052809291908181526020018280548015610fca57602002820191906000526020600020905b8160009054906101000a900473ffffffffffffffffffffffffffffffffffffffff1673ffffffffffffffffffffffffffffffffffffffff1681526020019060010190808311610f80575b5050505050915050919050565b33600160008273ffffffffffffffffffffffffffffffffffffffff1673ffffffffffffffffffffffffffffffffffffffff16815260200190815260200160002060030160019054906101000a900460ff16611067576040517f08c379a000000000000000000000000000000000000000000000000000000000815260040161105e90614893565b60405180910390fd5b338073ffffffffffffffffffffffffffffffffffffffff16600160008373ffffffffffffffffffffffffffffffffffffffff1673ffffffffffffffffffffffffffffffffffffffff16815260200190815260200160002060000160009054906101000a900473ffffffffffffffffffffffffffffffffffffffff1673ffffffffffffffffffffffffffffffffffffffff1614611138576040517f08c379a000000000000000000000000000000000000000000000000000000000815260040161112f90614813565b60405180910390fd5b33600160008273ffffffffffffffffffffffffffffffffffffffff1673ffffffffffffffffffffffffffffffffffffffff16815260200190815260200160002060030160009054906101000a900460ff166111c8576040517f08c379a00000000000000000000000000000000000000000000000000000000081526004016111bf90614853565b60405180910390fd5b600360008154809291906111db90614b9b565b9190505550600060405180606001604052806003548152602001878152602001868152509050600460003373ffffffffffffffffffffffffffffffffffffffff1673ffffffffffffffffffffffffffffffffffffffff168152602001908152602001600020819080600181540180825580915050600190039060005260206000209060030201600090919091909150600082015181600001556020820151816001019080519060200190611290929190613e40565b5060408201518160020190805190602001906112ad929190613e40565b5050506008856040516112c091906145c7565b908152602001604051809103902081908060018154018082558091505060019003906000526020600020906003020160009091909190915060008201518160000155602082015181600101908051906020019061131e929190613e40565b50604082015181600201908051906020019061133b929190613e40565b5050508060066000600354815260200190815260200160002060008201518160000155602082015181600101908051906020019061137a929190613e40565b506040820151816002019080519060200190611397929190613e40565b509050503360076000600354815260200190815260200160002060006101000a81548173ffffffffffffffffffffffffffffffffffffffff021916908373ffffffffffffffffffffffffffffffffffffffff1602179055506005819080600181540180825580915050600190039060005260206000209060030201600090919091909150600082015181600001556020820151816001019080519060200190611441929190613e40565b50604082015181600201908051906020019061145e929190613e40565b5050507ffbcec0c5889afd6daeaa141f9583ed78e901483072fbb711262dad68fd2c9610600354600160003373ffffffffffffffffffffffffffffffffffffffff1673ffffffffffffffffffffffffffffffffffffffff16815260200190815260200160002060010188886040516114d99493929190614953565b60405180910390a1505050505050565b6060338073ffffffffffffffffffffffffffffffffffffffff16600160008373ffffffffffffffffffffffffffffffffffffffff1673ffffffffffffffffffffffffffffffffffffffff16815260200190815260200160002060000160009054906101000a900473ffffffffffffffffffffffffffffffffffffffff1673ffffffffffffffffffffffffffffffffffffffff16146115bc576040517f08c379a00000000000000000000000000000000000000000000000000000000081526004016115b390614813565b60405180910390fd5b33600160008273ffffffffffffffffffffffffffffffffffffffff1673ffffffffffffffffffffffffffffffffffffffff16815260200190815260200160002060030160009054906101000a900460ff1661164c576040517f08c379a000000000000000000000000000000000000000000000000000000000815260040161164390614853565b60405180910390fd5b6005805480602002602001604051908101604052809291908181526020016000905b828210156117ce5783829060005260206000209060030201604051806060016040529081600082015481526020016001820180546116ab90614b69565b80601f01602080910402602001604051908101604052809291908181526020018280546116d790614b69565b80156117245780601f106116f957610100808354040283529160200191611724565b820191906000526020600020905b81548152906001019060200180831161170757829003601f168201915b5050505050815260200160028201805461173d90614b69565b80601f016020809104026020016040519081016040528092919081815260200182805461176990614b69565b80156117b65780601f1061178b576101008083540402835291602001916117b6565b820191906000526020600020905b81548152906001019060200180831161179957829003601f168201915b5050505050815250508152602001906001019061166e565b505050509250505090565b606033600160008273ffffffffffffffffffffffffffffffffffffffff1673ffffffffffffffffffffffffffffffffffffffff16815260200190815260200160002060030160019054906101000a900460ff1661186b576040517f08c379a000000000000000000000000000000000000000000000000000000000815260040161186290614893565b60405180910390fd5b33600160008273ffffffffffffffffffffffffffffffffffffffff1673ffffffffffffffffffffffffffffffffffffffff16815260200190815260200160002060030160009054906101000a900460ff166118fb576040517f08c379a00000000000000000000000000000000000000000000000000000000081526004016118f290614853565b60405180910390fd5b60088460405161190b91906145c7565b9081526020016040518091039020805480602002602001604051908101604052809291908181526020016000905b82821015611a9957838290600052602060002090600302016040518060600160405290816000820154815260200160018201805461197690614b69565b80601f01602080910402602001604051908101604052809291908181526020018280546119a290614b69565b80156119ef5780601f106119c4576101008083540402835291602001916119ef565b820191906000526020600020905b8154815290600101906020018083116119d257829003601f168201915b50505050508152602001600282018054611a0890614b69565b80601f0160208091040260200160405190810160405280929190818152602001828054611a3490614b69565b8015611a815780601f10611a5657610100808354040283529160200191611a81565b820191906000526020600020905b815481529060010190602001808311611a6457829003601f168201915b50505050508152505081526020019060010190611939565b5050505092505050919050565b60606000806000338073ffffffffffffffffffffffffffffffffffffffff16600160008373ffffffffffffffffffffffffffffffffffffffff1673ffffffffffffffffffffffffffffffffffffffff16815260200190815260200160002060000160009054906101000a900473ffffffffffffffffffffffffffffffffffffffff1673ffffffffffffffffffffffffffffffffffffffff1614611b7e576040517f08c379a0000000000000000000000000000000000000000000000000000000008152600401611b7590614813565b60405180910390fd5b33600160008273ffffffffffffffffffffffffffffffffffffffff1673ffffffffffffffffffffffffffffffffffffffff16815260200190815260200160002060030160019054906101000a900460ff16611c0e576040517f08c379a0000000000000000000000000000000000000000000000000000000008152600401611c0590614893565b60405180910390fd5b33600160008273ffffffffffffffffffffffffffffffffffffffff1673ffffffffffffffffffffffffffffffffffffffff16815260200190815260200160002060030160009054906101000a900460ff16611c9e576040517f08c379a0000000000000000000000000000000000000000000000000000000008152600401611c9590614853565b60405180910390fd5b600160003373ffffffffffffffffffffffffffffffffffffffff1673ffffffffffffffffffffffffffffffffffffffff168152602001908152602001600020600101600160003373ffffffffffffffffffffffffffffffffffffffff1673ffffffffffffffffffffffffffffffffffffffff16815260200190815260200160002060040180549050600160003373ffffffffffffffffffffffffffffffffffffffff1673ffffffffffffffffffffffffffffffffffffffff16815260200190815260200160002060050180549050600160003373ffffffffffffffffffffffffffffffffffffffff1673ffffffffffffffffffffffffffffffffffffffff16815260200190815260200160002060020154838054611dbb90614b69565b80601f0160208091040260200160405190810160405280929190818152602001828054611de790614b69565b8015611e345780601f10611e0957610100808354040283529160200191611e34565b820191906000526020600020905b815481529060010190602001808311611e1757829003601f168201915b50505050509350965096509650965050505090919293565b33600160008273ffffffffffffffffffffffffffffffffffffffff1673ffffffffffffffffffffffffffffffffffffffff16815260200190815260200160002060030160019054906101000a900460ff16611edc576040517f08c379a0000000000000000000000000000000000000000000000000000000008152600401611ed390614893565b60405180910390fd5b338073ffffffffffffffffffffffffffffffffffffffff16600160008373ffffffffffffffffffffffffffffffffffffffff1673ffffffffffffffffffffffffffffffffffffffff16815260200190815260200160002060000160009054906101000a900473ffffffffffffffffffffffffffffffffffffffff1673ffffffffffffffffffffffffffffffffffffffff1614611fad576040517f08c379a0000000000000000000000000000000000000000000000000000000008152600401611fa490614813565b60405180910390fd5b33600160008273ffffffffffffffffffffffffffffffffffffffff1673ffffffffffffffffffffffffffffffffffffffff16815260200190815260200160002060030160009054906101000a900460ff1661203d576040517f08c379a000000000000000000000000000000000000000000000000000000000815260040161203490614853565b60405180910390fd5b6000600160003373ffffffffffffffffffffffffffffffffffffffff1673ffffffffffffffffffffffffffffffffffffffff16815260200190815260200160002060030160016101000a81548160ff021916908315150217905550505050565b33600160008273ffffffffffffffffffffffffffffffffffffffff1673ffffffffffffffffffffffffffffffffffffffff16815260200190815260200160002060030160019054906101000a900460ff1661212d576040517f08c379a000000000000000000000000000000000000000000000000000000000815260040161212490614893565b60405180910390fd5b33600160008273ffffffffffffffffffffffffffffffffffffffff1673ffffffffffffffffffffffffffffffffffffffff16815260200190815260200160002060030160009054906101000a900460ff166121bd576040517f08c379a00000000000000000000000000000000000000000000000000000000081526004016121b490614853565b60405180910390fd5b6121c683613b1b565b15612206576040517f08c379a00000000000000000000000000000000000000000000000000000000081526004016121fd90614913565b60405180910390fd5b60096000848152602001908152602001600020339080600181540180825580915050600190039060005260206000200160009091909190916101000a81548173ffffffffffffffffffffffffffffffffffffffff021916908373ffffffffffffffffffffffffffffffffffffffff160217905550505050565b600080600a600084815260200190815260200160002080548060200260200160405190810160405280929190818152602001828054801561231557602002820191906000526020600020905b8160009054906101000a900473ffffffffffffffffffffffffffffffffffffffff1673ffffffffffffffffffffffffffffffffffffffff16815260200190600101908083116122cb575b5050505050905060005b81518110156123ba57818181518110612361577f4e487b7100000000000000000000000000000000000000000000000000000000600052603260045260246000fd5b602002602001015173ffffffffffffffffffffffffffffffffffffffff163373ffffffffffffffffffffffffffffffffffffffff1614156123a7576001925050506123bd565b80806123b290614b9b565b91505061231f565b50505b919050565b606033600160008273ffffffffffffffffffffffffffffffffffffffff1673ffffffffffffffffffffffffffffffffffffffff16815260200190815260200160002060030160009054906101000a900460ff16612454576040517f08c379a000000000000000000000000000000000000000000000000000000000815260040161244b90614853565b60405180910390fd5b600a60008481526020019081526020016000208054806020026020016040519081016040528092919081815260200182805480156124e757602002820191906000526020600020905b8160009054906101000a900473ffffffffffffffffffffffffffffffffffffffff1673ffffffffffffffffffffffffffffffffffffffff168152602001906001019080831161249d575b5050505050915050919050565b6060338073ffffffffffffffffffffffffffffffffffffffff16600160008373ffffffffffffffffffffffffffffffffffffffff1673ffffffffffffffffffffffffffffffffffffffff16815260200190815260200160002060000160009054906101000a900473ffffffffffffffffffffffffffffffffffffffff1673ffffffffffffffffffffffffffffffffffffffff16146125c7576040517f08c379a00000000000000000000000000000000000000000000000000000000081526004016125be90614813565b60405180910390fd5b33600160008273ffffffffffffffffffffffffffffffffffffffff1673ffffffffffffffffffffffffffffffffffffffff16815260200190815260200160002060030160009054906101000a900460ff16612657576040517f08c379a000000000000000000000000000000000000000000000000000000000815260040161264e90614853565b60405180910390fd5b60028460405161266791906145c7565b908152602001604051809103902060009054906101000a900473ffffffffffffffffffffffffffffffffffffffff16600160008273ffffffffffffffffffffffffffffffffffffffff1673ffffffffffffffffffffffffffffffffffffffff16815260200190815260200160002060030160019054906101000a900460ff16612725576040517f08c379a000000000000000000000000000000000000000000000000000000000815260040161271c90614893565b60405180910390fd5b6004600060028760405161273991906145c7565b908152602001604051809103902060009054906101000a900473ffffffffffffffffffffffffffffffffffffffff1673ffffffffffffffffffffffffffffffffffffffff1673ffffffffffffffffffffffffffffffffffffffff168152602001908152602001600020805480602002602001604051908101604052809291908181526020016000905b828210156129225783829060005260206000209060030201604051806060016040529081600082015481526020016001820180546127ff90614b69565b80601f016020809104026020016040519081016040528092919081815260200182805461282b90614b69565b80156128785780601f1061284d57610100808354040283529160200191612878565b820191906000526020600020905b81548152906001019060200180831161285b57829003601f168201915b5050505050815260200160028201805461289190614b69565b80601f01602080910402602001604051908101604052809291908181526020018280546128bd90614b69565b801561290a5780601f106128df5761010080835404028352916020019161290a565b820191906000526020600020905b8154815290600101906020018083116128ed57829003601f168201915b505050505081525050815260200190600101906127c2565b505050509350505050919050565b60016020528060005260406000206000915090508060000160009054906101000a900473ffffffffffffffffffffffffffffffffffffffff169080600101805461297990614b69565b80601f01602080910402602001604051908101604052809291908181526020018280546129a590614b69565b80156129f25780601f106129c7576101008083540402835291602001916129f2565b820191906000526020600020905b8154815290600101906020018083116129d557829003601f168201915b5050505050908060020154908060030160009054906101000a900460ff16908060030160019054906101000a900460ff16905085565b60008060016000600285604051612a3f91906145c7565b908152602001604051809103902060009054906101000a900473ffffffffffffffffffffffffffffffffffffffff1673ffffffffffffffffffffffffffffffffffffffff1673ffffffffffffffffffffffffffffffffffffffff168152602001908152602001600020600401805480602002602001604051908101604052809291908181526020018280548015612b2b57602002820191906000526020600020905b8160009054906101000a900473ffffffffffffffffffffffffffffffffffffffff1673ffffffffffffffffffffffffffffffffffffffff1681526020019060010190808311612ae1575b5050505050905060005b8151811015612bd057818181518110612b77577f4e487b7100000000000000000000000000000000000000000000000000000000600052603260045260246000fd5b602002602001015173ffffffffffffffffffffffffffffffffffffffff163373ffffffffffffffffffffffffffffffffffffffff161415612bbd57600192505050612bd3565b8080612bc890614b9b565b915050612b35565b50505b919050565b338073ffffffffffffffffffffffffffffffffffffffff16600160008373ffffffffffffffffffffffffffffffffffffffff1673ffffffffffffffffffffffffffffffffffffffff16815260200190815260200160002060000160009054906101000a900473ffffffffffffffffffffffffffffffffffffffff1673ffffffffffffffffffffffffffffffffffffffff1614612ca9576040517f08c379a0000000000000000000000000000000000000000000000000000000008152600401612ca090614813565b60405180910390fd5b33600160008273ffffffffffffffffffffffffffffffffffffffff1673ffffffffffffffffffffffffffffffffffffffff16815260200190815260200160002060030160009054906101000a900460ff16612d39576040517f08c379a0000000000000000000000000000000000000000000000000000000008152600401612d3090614853565b60405180910390fd5b600283604051612d4991906145c7565b908152602001604051809103902060009054906101000a900473ffffffffffffffffffffffffffffffffffffffff168073ffffffffffffffffffffffffffffffffffffffff16600160008373ffffffffffffffffffffffffffffffffffffffff1673ffffffffffffffffffffffffffffffffffffffff16815260200190815260200160002060000160009054906101000a900473ffffffffffffffffffffffffffffffffffffffff1673ffffffffffffffffffffffffffffffffffffffff1614612e48576040517f08c379a0000000000000000000000000000000000000000000000000000000008152600401612e3f90614813565b60405180910390fd5b600284604051612e5891906145c7565b908152602001604051809103902060009054906101000a900473ffffffffffffffffffffffffffffffffffffffff16600160008273ffffffffffffffffffffffffffffffffffffffff1673ffffffffffffffffffffffffffffffffffffffff16815260200190815260200160002060030160019054906101000a900460ff16612f16576040517f08c379a0000000000000000000000000000000000000000000000000000000008152600401612f0d90614893565b60405180910390fd5b612f1f85612a28565b15612f5f576040517f08c379a0000000000000000000000000000000000000000000000000000000008152600401612f5690614873565b60405180910390fd5b60016000600287604051612f7391906145c7565b908152602001604051809103902060009054906101000a900473ffffffffffffffffffffffffffffffffffffffff1673ffffffffffffffffffffffffffffffffffffffff1673ffffffffffffffffffffffffffffffffffffffff168152602001908152602001600020600401339080600181540180825580915050600190039060005260206000200160009091909190916101000a81548173ffffffffffffffffffffffffffffffffffffffff021916908373ffffffffffffffffffffffffffffffffffffffff160217905550600160003373ffffffffffffffffffffffffffffffffffffffff1673ffffffffffffffffffffffffffffffffffffffff16815260200190815260200160002060050160028660405161309291906145c7565b908152602001604051809103902060009054906101000a900473ffffffffffffffffffffffffffffffffffffffff169080600181540180825580915050600190039060005260206000200160009091909190916101000a81548173ffffffffffffffffffffffffffffffffffffffff021916908373ffffffffffffffffffffffffffffffffffffffff1602179055505050505050565b606060008060006060338073ffffffffffffffffffffffffffffffffffffffff16600160008373ffffffffffffffffffffffffffffffffffffffff1673ffffffffffffffffffffffffffffffffffffffff16815260200190815260200160002060000160009054906101000a900473ffffffffffffffffffffffffffffffffffffffff1673ffffffffffffffffffffffffffffffffffffffff1614613202576040517f08c379a00000000000000000000000000000000000000000000000000000000081526004016131f990614813565b60405180910390fd5b33600160008273ffffffffffffffffffffffffffffffffffffffff1673ffffffffffffffffffffffffffffffffffffffff16815260200190815260200160002060030160019054906101000a900460ff16613292576040517f08c379a000000000000000000000000000000000000000000000000000000000815260040161328990614893565b60405180910390fd5b33600160008273ffffffffffffffffffffffffffffffffffffffff1673ffffffffffffffffffffffffffffffffffffffff16815260200190815260200160002060030160009054906101000a900460ff16613322576040517f08c379a000000000000000000000000000000000000000000000000000000000815260040161331990614853565b60405180910390fd5b886001600060028360405161333791906145c7565b908152602001604051809103902060009054906101000a900473ffffffffffffffffffffffffffffffffffffffff1673ffffffffffffffffffffffffffffffffffffffff1673ffffffffffffffffffffffffffffffffffffffff16815260200190815260200160002060030160019054906101000a900460ff166133f0576040517f08c379a00000000000000000000000000000000000000000000000000000000081526004016133e790614833565b60405180910390fd5b600115156001600060028d60405161340891906145c7565b908152602001604051809103902060009054906101000a900473ffffffffffffffffffffffffffffffffffffffff1673ffffffffffffffffffffffffffffffffffffffff1673ffffffffffffffffffffffffffffffffffffffff16815260200190815260200160002060030160019054906101000a900460ff161515146134c4576040517f08c379a00000000000000000000000000000000000000000000000000000000081526004016134bb906148b3565b60405180910390fd5b600115156001600060028d6040516134dc91906145c7565b908152602001604051809103902060009054906101000a900473ffffffffffffffffffffffffffffffffffffffff1673ffffffffffffffffffffffffffffffffffffffff1673ffffffffffffffffffffffffffffffffffffffff16815260200190815260200160002060030160009054906101000a900460ff1615151415613838576001600060028c60405161357291906145c7565b908152602001604051809103902060009054906101000a900473ffffffffffffffffffffffffffffffffffffffff1673ffffffffffffffffffffffffffffffffffffffff1673ffffffffffffffffffffffffffffffffffffffff1681526020019081526020016000206001016001600060028d6040516135f291906145c7565b908152602001604051809103902060009054906101000a900473ffffffffffffffffffffffffffffffffffffffff1673ffffffffffffffffffffffffffffffffffffffff1673ffffffffffffffffffffffffffffffffffffffff168152602001908152602001600020600401805490506001600060028e60405161367691906145c7565b908152602001604051809103902060009054906101000a900473ffffffffffffffffffffffffffffffffffffffff1673ffffffffffffffffffffffffffffffffffffffff1673ffffffffffffffffffffffffffffffffffffffff168152602001908152602001600020600501805490506001600060028f6040516136fa91906145c7565b908152602001604051809103902060009054906101000a900473ffffffffffffffffffffffffffffffffffffffff1673ffffffffffffffffffffffffffffffffffffffff1673ffffffffffffffffffffffffffffffffffffffff1681526020019081526020016000206002015483805461377390614b69565b80601f016020809104026020016040519081016040528092919081815260200182805461379f90614b69565b80156137ec5780601f106137c1576101008083540402835291602001916137ec565b820191906000526020600020905b8154815290600101906020018083116137cf57829003601f168201915b505050505093506040518060400160405280600681526020017f4f6e6c696e65000000000000000000000000000000000000000000000000000081525098509850985098509850613b0e565b6001600060028c60405161384c91906145c7565b908152602001604051809103902060009054906101000a900473ffffffffffffffffffffffffffffffffffffffff1673ffffffffffffffffffffffffffffffffffffffff1673ffffffffffffffffffffffffffffffffffffffff1681526020019081526020016000206001016001600060028d6040516138cc91906145c7565b908152602001604051809103902060009054906101000a900473ffffffffffffffffffffffffffffffffffffffff1673ffffffffffffffffffffffffffffffffffffffff1673ffffffffffffffffffffffffffffffffffffffff168152602001908152602001600020600401805490506001600060028e60405161395091906145c7565b908152602001604051809103902060009054906101000a900473ffffffffffffffffffffffffffffffffffffffff1673ffffffffffffffffffffffffffffffffffffffff1673ffffffffffffffffffffffffffffffffffffffff168152602001908152602001600020600501805490506001600060028f6040516139d491906145c7565b908152602001604051809103902060009054906101000a900473ffffffffffffffffffffffffffffffffffffffff1673ffffffffffffffffffffffffffffffffffffffff1673ffffffffffffffffffffffffffffffffffffffff16815260200190815260200160002060020154838054613a4d90614b69565b80601f0160208091040260200160405190810160405280929190818152602001828054613a7990614b69565b8015613ac65780601f10613a9b57610100808354040283529160200191613ac6565b820191906000526020600020905b815481529060010190602001808311613aa957829003601f168201915b505050505093506040518060400160405280600781526020017f4f66666c696e6500000000000000000000000000000000000000000000000000815250985098509850985098505b5050505091939590929450565b60008060096000848152602001908152602001600020805480602002602001604051908101604052809291908181526020018280548015613bb157602002820191906000526020600020905b8160009054906101000a900473ffffffffffffffffffffffffffffffffffffffff1673ffffffffffffffffffffffffffffffffffffffff1681526020019060010190808311613b67575b5050505050905060005b8151811015613c5657818181518110613bfd577f4e487b7100000000000000000000000000000000000000000000000000000000600052603260045260246000fd5b602002602001015173ffffffffffffffffffffffffffffffffffffffff163373ffffffffffffffffffffffffffffffffffffffff161415613c4357600192505050613c59565b8080613c4e90614b9b565b915050613bbb565b50505b919050565b33600160008273ffffffffffffffffffffffffffffffffffffffff1673ffffffffffffffffffffffffffffffffffffffff16815260200190815260200160002060030160019054906101000a900460ff16613cee576040517f08c379a0000000000000000000000000000000000000000000000000000000008152600401613ce590614893565b60405180910390fd5b33600160008273ffffffffffffffffffffffffffffffffffffffff1673ffffffffffffffffffffffffffffffffffffffff16815260200190815260200160002060030160009054906101000a900460ff16613d7e576040517f08c379a0000000000000000000000000000000000000000000000000000000008152600401613d7590614853565b60405180910390fd5b613d878361227f565b15613dc7576040517f08c379a0000000000000000000000000000000000000000000000000000000008152600401613dbe906148f3565b60405180910390fd5b600a6000848152602001908152602001600020339080600181540180825580915050600190039060005260206000200160009091909190916101000a81548173ffffffffffffffffffffffffffffffffffffffff021916908373ffffffffffffffffffffffffffffffffffffffff160217905550505050565b828054613e4c90614b69565b90600052602060002090601f016020900481019282613e6e5760008555613eb5565b82601f10613e8757805160ff1916838001178555613eb5565b82800160010185558215613eb5579182015b82811115613eb4578251825591602001919060010190613e99565b5b509050613ec29190613ec6565b5090565b5b80821115613edf576000816000905550600101613ec7565b5090565b6000613ef6613ef1846149de565b6149ad565b905082815260208101848484011115613f0e57600080fd5b613f19848285614b27565b509392505050565b600081359050613f3081614c82565b92915050565b600082601f830112613f4757600080fd5b8135613f57848260208601613ee3565b91505092915050565b600081359050613f6f81614c99565b92915050565b600060208284031215613f8757600080fd5b6000613f9584828501613f21565b91505092915050565b600060208284031215613fb057600080fd5b600082013567ffffffffffffffff811115613fca57600080fd5b613fd684828501613f36565b91505092915050565b60008060408385031215613ff257600080fd5b600083013567ffffffffffffffff81111561400c57600080fd5b61401885828601613f36565b925050602083013567ffffffffffffffff81111561403557600080fd5b61404185828601613f36565b9150509250929050565b60006020828403121561405d57600080fd5b600061406b84828501613f60565b91505092915050565b600061408083836140a0565b60208301905092915050565b60006140988383614552565b905092915050565b6140a981614acd565b82525050565b6140b881614acd565b82525050565b60006140c982614a43565b6140d38185614a7e565b93506140de83614a0e565b8060005b8381101561410f5781516140f68882614074565b975061410183614a64565b9250506001810190506140e2565b5085935050505092915050565b600061412782614a4e565b6141318185614a8f565b93508360208202850161414385614a1e565b8060005b8581101561417f5784840389528151614160858261408c565b945061416b83614a71565b925060208a01995050600181019050614147565b50829750879550505050505092915050565b61419a81614adf565b82525050565b6141a981614b15565b82525050565b60006141ba82614a59565b6141c48185614aa0565b93506141d4818560208601614b36565b6141dd81614c71565b840191505092915050565b60006141f382614a59565b6141fd8185614ab1565b935061420d818560208601614b36565b61421681614c71565b840191505092915050565b600061422c82614a59565b6142368185614ac2565b9350614246818560208601614b36565b80840191505092915050565b6000815461425f81614b69565b6142698186614ab1565b945060018216600081146142845760018114614296576142c9565b60ff19831686526020860193506142c9565b61429f85614a2e565b60005b838110156142c1578154818901526001820191506020810190506142a2565b808801955050505b50505092915050565b60006142df601183614ab1565b91507f55736572206973206e6f742045786973740000000000000000000000000000006000830152602082019050919050565b600061431f600d83614ab1565b91507f4e6f207573657220666f756e64000000000000000000000000000000000000006000830152602082019050919050565b600061435f601583614ab1565b91507f596f7520617265206e6f74207369676e656420496e00000000000000000000006000830152602082019050919050565b600061439f601983614ab1565b91507f596f75206861766520616c726561647920466f6c6c6f776564000000000000006000830152602082019050919050565b60006143df601b83614ab1565b91507f54686973204163636f756e7420697320646561637469766174656400000000006000830152602082019050919050565b600061441f601a83614ab1565b91507f54686973204163636f75742069732064656163746976617465640000000000006000830152602082019050919050565b600061445f601883614ab1565b91507f6d616e61676572206d757374206e6f74206265205573657200000000000000006000830152602082019050919050565b600061449f601b83614ab1565b91507f596f75206861766520616c72656164792052652d5477697474656400000000006000830152602082019050919050565b60006144df601683614ab1565b91507f596f75206861766520616c7265616479204c696b6564000000000000000000006000830152602082019050919050565b600061451f601683614ab1565b91507f4163636f756e7420616c726561647920457869737473000000000000000000006000830152602082019050919050565b600060608301600083015161456a60008601826145a9565b506020830151848203602086015261458282826141af565b9150506040830151848203604086015261459c82826141af565b9150508091505092915050565b6145b281614b0b565b82525050565b6145c181614b0b565b82525050565b60006145d38284614221565b915081905092915050565b60006020820190506145f360008301846140af565b92915050565b600060a08201905061460e60008301886140af565b818103602083015261462081876141e8565b905061462f60408301866145b8565b61463c6060830185614191565b6146496080830184614191565b9695505050505050565b600060a08201905061466860008301886140af565b818103602083015261467a81876141e8565b905061468960408301866145b8565b61469660608301856141a0565b6146a360808301846141a0565b9695505050505050565b600060a0820190506146c260008301886140af565b81810360208301526146d48187614252565b90506146e360408301866145b8565b6146f060608301856145b8565b6146fd60808301846145b8565b9695505050505050565b6000602082019050818103600083015261472181846140be565b905092915050565b60006020820190508181036000830152614743818461411c565b905092915050565b60006020820190506147606000830184614191565b92915050565b6000608082019050818103600083015261478081876141e8565b905061478f60208301866145b8565b61479c60408301856145b8565b6147a960608301846145b8565b95945050505050565b600060a08201905081810360008301526147cc81886141e8565b90506147db60208301876145b8565b6147e860408301866145b8565b6147f560608301856145b8565b818103608083015261480781846141e8565b90509695505050505050565b6000602082019050818103600083015261482c816142d2565b9050919050565b6000602082019050818103600083015261484c81614312565b9050919050565b6000602082019050818103600083015261486c81614352565b9050919050565b6000602082019050818103600083015261488c81614392565b9050919050565b600060208201905081810360008301526148ac816143d2565b9050919050565b600060208201905081810360008301526148cc81614412565b9050919050565b600060208201905081810360008301526148ec81614452565b9050919050565b6000602082019050818103600083015261490c81614492565b9050919050565b6000602082019050818103600083015261492c816144d2565b9050919050565b6000602082019050818103600083015261494c81614512565b9050919050565b600060808201905061496860008301876145b8565b818103602083015261497a8186614252565b9050818103604083015261498e81856141e8565b905081810360608301526149a281846141e8565b905095945050505050565b6000604051905081810181811067ffffffffffffffff821117156149d4576149d3614c42565b5b8060405250919050565b600067ffffffffffffffff8211156149f9576149f8614c42565b5b601f19601f8301169050602081019050919050565b6000819050602082019050919050565b6000819050602082019050919050565b60008190508160005260206000209050919050565b600081519050919050565b600081519050919050565b600081519050919050565b6000602082019050919050565b6000602082019050919050565b600082825260208201905092915050565b600082825260208201905092915050565b600082825260208201905092915050565b600082825260208201905092915050565b600081905092915050565b6000614ad882614aeb565b9050919050565b60008115159050919050565b600073ffffffffffffffffffffffffffffffffffffffff82169050919050565b6000819050919050565b6000614b2082614b0b565b9050919050565b82818337600083830152505050565b60005b83811015614b54578082015181840152602081019050614b39565b83811115614b63576000848401525b50505050565b60006002820490506001821680614b8157607f821691505b60208210811415614b9557614b94614c13565b5b50919050565b6000614ba682614b0b565b91507fffffffffffffffffffffffffffffffffffffffffffffffffffffffffffffffff821415614bd957614bd8614be4565b5b600182019050919050565b7f4e487b7100000000000000000000000000000000000000000000000000000000600052601160045260246000fd5b7f4e487b7100000000000000000000000000000000000000000000000000000000600052602260045260246000fd5b7f4e487b7100000000000000000000000000000000000000000000000000000000600052604160045260246000fd5b6000601f19601f8301169050919050565b614c8b81614acd565b8114614c9657600080fd5b50565b614ca281614b0b565b8114614cad57600080fd5b5056fea2646970667358221220bef0cf788dd27ab020bbdcbd59b0940e43c08033e4cabc911c54ff2d441ca1e264736f6c63430008000033",
  "immutableReferences": {},
  "source": "pragma solidity ^0.8.0;\r\n\r\ncontract Dwitter {\r\n    address manager;    \r\n    struct User {\r\n        address userAddress;\r\n        string userName;\r\n        uint accountCreatedON;\r\n        bool signIn;\r\n        bool accountStatus;\r\n        address[] followers;\r\n        address[] following;\r\n    }\r\n    \r\n    mapping(address=>User) public users;\r\n    mapping(string=>address) userNameToAddress;\r\n    \r\n    event newUser(address userAddress, string userName, uint accountCreatedON, uint followers, uint following);\r\n    event newTweet(uint postID, string userName, string content, string tag);\r\n    \r\n    event userSignIN(address userAddress, string userName, uint accountCreatedON, uint followers, uint following);\r\n    \r\n    \r\n    struct Post {\r\n        uint postId;\r\n        string content;\r\n        string tag;\r\n    }\r\n    \r\n    uint postCount;\r\n    mapping(address=>Post[]) posts;\r\n    Post[] allPosts;\r\n    mapping(uint=>Post) idToPost;\r\n    mapping(uint=>address) idToUser;\r\n    // mapping(uint => mapping(address => Post)) postIdToUser;\r\n    mapping(string=>Post[]) tagsToPost;\r\n    \r\n    mapping(uint=>address[]) likes;\r\n    mapping(uint=>address[]) reTweets;\r\n    \r\n    constructor() {\r\n        manager = msg.sender;\r\n    }\r\n    \r\n    // Modifiers\r\n    \r\n    modifier userExist(address _userAddress) {\r\n        require(users[_userAddress].userAddress == _userAddress, \"User is not Exist\");\r\n        _;\r\n    }\r\n    modifier checkUser(string memory _userName) {\r\n        require(users[userNameToAddress[_userName]].accountStatus, \"No user found\");\r\n        _;\r\n    }\r\n    \r\n    modifier checkSignIn(address _userAddress) {\r\n        require(users[_userAddress].signIn, \"You are not signed In\");\r\n        _;\r\n    }\r\n    \r\n    modifier checkSignOut(address _userAddress) {\r\n        require(!users[_userAddress].signIn, \"You are not signed out\");\r\n        _;\r\n    }\r\n    \r\n    modifier checkAccountStatus(address _userAddress) {\r\n        require(users[_userAddress].accountStatus, \"This Account is deactivated\");\r\n        _;\r\n    }\r\n    \r\n    // modifier checkFollowed(address _userAddress) {\r\n    //     require(users[_userAddress].following == users[msg.sender].followers);\r\n    //     _;\r\n    // }\r\n    \r\n    // Functions\r\n    \r\n    function signUP(string memory _userName) public {\r\n        require(msg.sender != manager, \"manager must not be User\");\r\n        require(users[msg.sender].userAddress == address(0), \"Account already Exists\");\r\n        // User memory user = User(msg.sender, _userName, block.timestamp, true, true, 0);\r\n        // users[msg.sender] = user;\r\n        userNameToAddress[_userName] = msg.sender;\r\n        users[msg.sender].userAddress = msg.sender;\r\n        users[msg.sender].userName = _userName;\r\n        users[msg.sender].accountCreatedON = block.timestamp;\r\n        users[msg.sender].signIn = true;\r\n        users[msg.sender].accountStatus = true;\r\n        \r\n        emit newUser(msg.sender, _userName, users[msg.sender].accountCreatedON, 0, 0);\r\n    }\r\n    \r\n    function searchUser(string memory _userName) public userExist(msg.sender) checkAccountStatus(msg.sender) checkSignIn(msg.sender) checkUser(_userName) view returns(string memory, uint, uint, uint, string memory) {\r\n        require(users[userNameToAddress[_userName]].accountStatus == true, \"This Accout is deactivated\");\r\n        if(users[userNameToAddress[_userName]].signIn == true) {\r\n            return(users[userNameToAddress[_userName]].userName, users[userNameToAddress[_userName]].followers.length, users[userNameToAddress[_userName]].following.length, users[userNameToAddress[_userName]].accountCreatedON, \"Online\");\r\n        }else {\r\n            return(users[userNameToAddress[_userName]].userName, users[userNameToAddress[_userName]].followers.length,users[userNameToAddress[_userName]].following.length, users[userNameToAddress[_userName]].accountCreatedON, \"Offline\");\r\n        }\r\n    }\r\n\r\n    function getUserByAddress() public userExist(msg.sender) checkAccountStatus(msg.sender) checkSignIn(msg.sender) view returns(string memory, uint, uint, uint) {\r\n        return(users[msg.sender].userName, users[msg.sender].followers.length, users[msg.sender].following.length, users[msg.sender].accountCreatedON);\r\n    }\r\n    \r\n    \r\n    \r\n    function makeSignIn() public userExist(msg.sender) {\r\n        // If person deactivated by themself then they can active their account by signIn again\r\n        if(!users[msg.sender].accountStatus) {\r\n            users[msg.sender].accountStatus = true;\r\n        }\r\n        else {\r\n            users[msg.sender].signIn = true;\r\n        }\r\n        \r\n        emit userSignIN(msg.sender, users[msg.sender].userName, users[msg.sender].accountCreatedON, users[msg.sender].followers.length, users[msg.sender].following.length);\r\n    }\r\n    function makeSignOut() public userExist(msg.sender) checkSignIn(msg.sender){\r\n        users[msg.sender].signIn = false;\r\n    }\r\n    \r\n    function accountDeactive() public checkAccountStatus(msg.sender) userExist(msg.sender) checkSignIn(msg.sender) {\r\n        users[msg.sender].accountStatus = false;\r\n    }\r\n    \r\n    function tweet(string memory _content, string memory _tag) public checkAccountStatus(msg.sender) userExist(msg.sender) checkSignIn(msg.sender) {\r\n        postCount++;\r\n        Post memory post = Post(postCount, _content, _tag);\r\n        posts[msg.sender].push(post);\r\n        tagsToPost[_tag].push(post);\r\n        idToPost[postCount] = post;\r\n        idToUser[postCount] = msg.sender;\r\n        allPosts.push(post);\r\n        \r\n        emit newTweet(postCount, users[msg.sender].userName, _content, _tag);\r\n    }\r\n    \r\n    function getTweetsOfUser(string memory _userName)public userExist(msg.sender) checkSignIn(msg.sender) checkAccountStatus(userNameToAddress[_userName]) view returns(Post[] memory) {\r\n        return(posts[userNameToAddress[_userName]]);\r\n    }\r\n    \r\n    function getUserByPostId(uint _postID)public userExist(msg.sender) checkSignIn(msg.sender) view returns(address){\r\n        return idToUser[_postID];\r\n    }\r\n    \r\n    function getAllPosts() public userExist(msg.sender) checkSignIn(msg.sender) view returns(Post[] memory) {\r\n        return allPosts;\r\n    }\r\n    \r\n    function getTagPost(string memory _tag) public checkAccountStatus(msg.sender) checkSignIn(msg.sender) view returns(Post[] memory) {\r\n        return tagsToPost[_tag];\r\n    }\r\n    \r\n    function followUser(string memory _userName) public userExist(msg.sender) checkSignIn(msg.sender) userExist(userNameToAddress[_userName]) checkAccountStatus(userNameToAddress[_userName]) {\r\n        require(!alreadyFollowed(_userName), \"You have already Followed\");\r\n        users[userNameToAddress[_userName]].followers.push(msg.sender);\r\n        users[msg.sender].following.push(userNameToAddress[_userName]);\r\n    }\r\n    \r\n    // function unfollow(string memory _userName)public userExist(msg.sender) checkSignIn(msg.sender) userExist(userNameToAddress[_userName]) checkAccountStatus(userNameToAddress[_userName]) {\r\n    //     address[] memory FollowedAddress = users[userNameToAddress[_userName]].followers;\r\n        \r\n    //     for(uint i = 0; i<FollowedAddress.length; i++){\r\n    //         if(msg.sender == FollowedAddress[i]){\r\n    //             users[userNameToAddress[_userName]].followers.pop();\r\n    //         }\r\n    //     }\r\n    // }\r\n    \r\n    function alreadyFollowed(string memory _userName) public view returns(bool){\r\n        \r\n        address[] memory FollowedAddress = users[userNameToAddress[_userName]].followers;\r\n        \r\n        for(uint i=0; i < FollowedAddress.length; i++){\r\n            if(msg.sender == FollowedAddress[i]){\r\n                return true;\r\n            }\r\n        }\r\n    }\r\n    \r\n    function likePost(uint _postID) public checkAccountStatus(msg.sender) checkSignIn(msg.sender){\r\n        require(!alreadyLiked(_postID), \"You have already Liked\");\r\n        likes[_postID].push(msg.sender);\r\n    }\r\n    \r\n    function alreadyLiked(uint _postID) public view returns(bool){\r\n        address[] memory likedAddress = likes[_postID];\r\n        \r\n        for(uint i=0; i < likedAddress.length; i++){\r\n            if(msg.sender == likedAddress[i]){\r\n                return true;\r\n            }\r\n        }\r\n    }\r\n    \r\n    function getLikesByPostID(uint _postID) public checkSignIn(msg.sender) view returns(address[] memory) {\r\n        return likes[_postID];\r\n    }\r\n    \r\n    function reTweet(uint _postID) public checkAccountStatus(msg.sender) checkSignIn(msg.sender){\r\n        require(!alreadyRetweeted(_postID), \"You have already Re-Twitted\");\r\n        reTweets[_postID].push(msg.sender);\r\n    }\r\n    \r\n    function alreadyRetweeted(uint _postID) public view returns(bool){\r\n        address[] memory RetweetedAddress = reTweets[_postID];\r\n        \r\n        for(uint i=0; i < RetweetedAddress.length; i++){\r\n            if(msg.sender == RetweetedAddress[i]){\r\n                return true;\r\n            }\r\n        }\r\n    }\r\n    \r\n    function getReTweetByPostID(uint _postID) public checkSignIn(msg.sender) view returns(address[] memory) {\r\n        return reTweets[_postID];\r\n    }\r\n}",
  "sourcePath": "F:/Courses/Symbiosis_Blockchain/Dwitter_javascript/contracts/Dwitter.sol",
  "compiler": {
    "name": "solc",
    "version": "0.8.0+commit.c7dfd78e.Emscripten.clang"
  },
  "schemaVersion": "3.3.4",
  "updatedAt": "2021-03-25T21:09:28.748Z",
  "networkType": "ethereum",
  "devdoc": {
    "kind": "dev",
    "methods": {},
    "version": 1
  },
  "userdoc": {
    "kind": "user",
    "methods": {},
    "version": 1
  }
}